{
	"contracts/Marketplace.sol": {
		"Marketplace": {
			"abi": [
				{
					"inputs": [
						{
							"internalType": "uint256",
							"name": "_feePercent",
							"type": "uint256"
						}
					],
					"stateMutability": "nonpayable",
					"type": "constructor"
				},
				{
					"anonymous": false,
					"inputs": [
						{
							"indexed": false,
							"internalType": "uint256",
							"name": "itemId",
							"type": "uint256"
						},
						{
							"indexed": true,
							"internalType": "address",
							"name": "nft",
							"type": "address"
						},
						{
							"indexed": false,
							"internalType": "uint256",
							"name": "tokenId",
							"type": "uint256"
						},
						{
							"indexed": false,
							"internalType": "uint256",
							"name": "price",
							"type": "uint256"
						},
						{
							"indexed": true,
							"internalType": "address",
							"name": "seller",
							"type": "address"
						},
						{
							"indexed": true,
							"internalType": "address",
							"name": "buyer",
							"type": "address"
						}
					],
					"name": "Bought",
					"type": "event"
				},
				{
					"anonymous": false,
					"inputs": [
						{
							"indexed": false,
							"internalType": "uint256",
							"name": "itemId",
							"type": "uint256"
						},
						{
							"indexed": true,
							"internalType": "address",
							"name": "nft",
							"type": "address"
						},
						{
							"indexed": false,
							"internalType": "uint256",
							"name": "tokenId",
							"type": "uint256"
						},
						{
							"indexed": false,
							"internalType": "uint256",
							"name": "price",
							"type": "uint256"
						},
						{
							"indexed": true,
							"internalType": "address",
							"name": "seller",
							"type": "address"
						}
					],
					"name": "Offered",
					"type": "event"
				},
				{
					"inputs": [],
					"name": "feeAccount",
					"outputs": [
						{
							"internalType": "address payable",
							"name": "",
							"type": "address"
						}
					],
					"stateMutability": "view",
					"type": "function"
				},
				{
					"inputs": [],
					"name": "feePercent",
					"outputs": [
						{
							"internalType": "uint256",
							"name": "",
							"type": "uint256"
						}
					],
					"stateMutability": "view",
					"type": "function"
				},
				{
					"inputs": [],
					"name": "itemCount",
					"outputs": [
						{
							"internalType": "uint256",
							"name": "",
							"type": "uint256"
						}
					],
					"stateMutability": "view",
					"type": "function"
				},
				{
					"inputs": [
						{
							"internalType": "uint256",
							"name": "",
							"type": "uint256"
						}
					],
					"name": "items",
					"outputs": [
						{
							"internalType": "uint256",
							"name": "itemId",
							"type": "uint256"
						},
						{
							"internalType": "contract IERC721",
							"name": "nft",
							"type": "address"
						},
						{
							"internalType": "uint256",
							"name": "tokenId",
							"type": "uint256"
						},
						{
							"internalType": "uint256",
							"name": "price",
							"type": "uint256"
						},
						{
							"internalType": "address payable",
							"name": "seller",
							"type": "address"
						},
						{
							"internalType": "bool",
							"name": "sold",
							"type": "bool"
						}
					],
					"stateMutability": "view",
					"type": "function"
				},
				{
					"inputs": [
						{
							"internalType": "contract IERC721",
							"name": "_nft",
							"type": "address"
						},
						{
							"internalType": "uint256",
							"name": "_tokenId",
							"type": "uint256"
						},
						{
							"internalType": "uint256",
							"name": "_price",
							"type": "uint256"
						}
					],
					"name": "makeItem",
					"outputs": [],
					"stateMutability": "nonpayable",
					"type": "function"
				}
			],
			"devdoc": {
				"kind": "dev",
				"methods": {},
				"version": 1
			},
			"evm": {
				"assembly": "    /* \"contracts/Marketplace.sol\":198:1298  contract Marketplace is ReentrancyGuard {\r... */\n  mstore(0x40, 0xc0)\n    /* \"contracts/Marketplace.sol\":1027:1143  constructor (uint _feePercent){\r... */\n  callvalue\n  dup1\n  iszero\n  tag_1\n  jumpi\n  0x00\n  dup1\n  revert\ntag_1:\n  pop\n  mload(0x40)\n  sub(codesize, bytecodeSize)\n  dup1\n  bytecodeSize\n  dup4\n  codecopy\n  dup2\n  dup2\n  add\n  0x40\n  mstore\n  dup2\n  add\n  swap1\n  tag_2\n  swap2\n  swap1\n  tag_3\n  jump\t// in\ntag_2:\n    /* \"@openzeppelin/contracts@4.5.0/security/ReentrancyGuard.sol\":1701:1702  1 */\n  0x01\n    /* \"@openzeppelin/contracts@4.5.0/security/ReentrancyGuard.sol\":1806:1813  _status */\n  0x00\n    /* \"@openzeppelin/contracts@4.5.0/security/ReentrancyGuard.sol\":1806:1828  _status = _NOT_ENTERED */\n  dup2\n  swap1\n  sstore\n  pop\n    /* \"contracts/Marketplace.sol\":1089:1099  msg.sender */\n  caller\n    /* \"contracts/Marketplace.sol\":1068:1100  feeAccount = payable(msg.sender) */\n  0xffffffffffffffffffffffffffffffffffffffff\n  and\n  0x80\n  dup2\n  0xffffffffffffffffffffffffffffffffffffffff\n  and\n  0x60\n  shl\n  dup2\n  mstore\n  pop\n  pop\n    /* \"contracts/Marketplace.sol\":1124:1135  _feePercent */\n  dup1\n    /* \"contracts/Marketplace.sol\":1111:1135  feePercent = _feePercent */\n  0xa0\n  dup2\n  dup2\n  mstore\n  pop\n  pop\n    /* \"contracts/Marketplace.sol\":1027:1143  constructor (uint _feePercent){\r... */\n  pop\n    /* \"contracts/Marketplace.sol\":198:1298  contract Marketplace is ReentrancyGuard {\r... */\n  jump(tag_8)\n    /* \"#utility.yul\":7:150   */\ntag_10:\n    /* \"#utility.yul\":64:69   */\n  0x00\n    /* \"#utility.yul\":95:101   */\n  dup2\n    /* \"#utility.yul\":89:102   */\n  mload\n    /* \"#utility.yul\":80:102   */\n  swap1\n  pop\n    /* \"#utility.yul\":111:144   */\n  tag_12\n    /* \"#utility.yul\":138:143   */\n  dup2\n    /* \"#utility.yul\":111:144   */\n  tag_13\n  jump\t// in\ntag_12:\n    /* \"#utility.yul\":70:150   */\n  swap3\n  swap2\n  pop\n  pop\n  jump\t// out\n    /* \"#utility.yul\":156:440   */\ntag_3:\n    /* \"#utility.yul\":226:232   */\n  0x00\n    /* \"#utility.yul\":275:277   */\n  0x20\n    /* \"#utility.yul\":263:272   */\n  dup3\n    /* \"#utility.yul\":254:261   */\n  dup5\n    /* \"#utility.yul\":250:273   */\n  sub\n    /* \"#utility.yul\":246:278   */\n  slt\n    /* \"#utility.yul\":243:245   */\n  iszero\n  tag_15\n  jumpi\n    /* \"#utility.yul\":291:292   */\n  0x00\n    /* \"#utility.yul\":288:289   */\n  dup1\n    /* \"#utility.yul\":281:293   */\n  revert\n    /* \"#utility.yul\":243:245   */\ntag_15:\n    /* \"#utility.yul\":334:335   */\n  0x00\n    /* \"#utility.yul\":359:423   */\n  tag_16\n    /* \"#utility.yul\":415:422   */\n  dup5\n    /* \"#utility.yul\":406:412   */\n  dup3\n    /* \"#utility.yul\":395:404   */\n  dup6\n    /* \"#utility.yul\":391:413   */\n  add\n    /* \"#utility.yul\":359:423   */\n  tag_10\n  jump\t// in\ntag_16:\n    /* \"#utility.yul\":349:423   */\n  swap2\n  pop\n    /* \"#utility.yul\":305:433   */\n  pop\n    /* \"#utility.yul\":233:440   */\n  swap3\n  swap2\n  pop\n  pop\n  jump\t// out\n    /* \"#utility.yul\":446:523   */\ntag_17:\n    /* \"#utility.yul\":483:490   */\n  0x00\n    /* \"#utility.yul\":512:517   */\n  dup2\n    /* \"#utility.yul\":501:517   */\n  swap1\n  pop\n    /* \"#utility.yul\":491:523   */\n  swap2\n  swap1\n  pop\n  jump\t// out\n    /* \"#utility.yul\":529:651   */\ntag_13:\n    /* \"#utility.yul\":602:626   */\n  tag_20\n    /* \"#utility.yul\":620:625   */\n  dup2\n    /* \"#utility.yul\":602:626   */\n  tag_17\n  jump\t// in\ntag_20:\n    /* \"#utility.yul\":595:600   */\n  dup2\n    /* \"#utility.yul\":592:627   */\n  eq\n    /* \"#utility.yul\":582:584   */\n  tag_21\n  jumpi\n    /* \"#utility.yul\":641:642   */\n  0x00\n    /* \"#utility.yul\":638:639   */\n  dup1\n    /* \"#utility.yul\":631:643   */\n  revert\n    /* \"#utility.yul\":582:584   */\ntag_21:\n    /* \"#utility.yul\":572:651   */\n  pop\n  jump\t// out\n    /* \"contracts/Marketplace.sol\":198:1298  contract Marketplace is ReentrancyGuard {\r... */\ntag_8:\n  shr(0x60, mload(0x80))\n  mload(0xa0)\n  codecopy(0x00, dataOffset(sub_0), dataSize(sub_0))\n  0x00\n  assignImmutable(\"0xca1c98d2cee18ab5da51a9df7bbf45ca91ab83c708e48aed82f5115320306ab4\")\n  0x00\n  assignImmutable(\"0x9abd569a0444be7ce52d46a7fb79009940c0c0442116f15017290ff13cb4450c\")\n  return(0x00, dataSize(sub_0))\nstop\n\nsub_0: assembly {\n        /* \"contracts/Marketplace.sol\":198:1298  contract Marketplace is ReentrancyGuard {\r... */\n      mstore(0x40, 0x80)\n      callvalue\n      dup1\n      iszero\n      tag_1\n      jumpi\n      0x00\n      dup1\n      revert\n    tag_1:\n      pop\n      jumpi(tag_2, lt(calldatasize, 0x04))\n      shr(0xe0, calldataload(0x00))\n      dup1\n      0x65e17c9d\n      eq\n      tag_3\n      jumpi\n      dup1\n      0x6bfb0d01\n      eq\n      tag_4\n      jumpi\n      dup1\n      0x7fd6f15c\n      eq\n      tag_5\n      jumpi\n      dup1\n      0xbfb231d2\n      eq\n      tag_6\n      jumpi\n      dup1\n      0xfa00afc7\n      eq\n      tag_7\n      jumpi\n    tag_2:\n      0x00\n      dup1\n      revert\n        /* \"contracts/Marketplace.sol\":349:392  address payable public immutable feeAccount */\n    tag_3:\n      tag_8\n      tag_9\n      jump\t// in\n    tag_8:\n      mload(0x40)\n      tag_10\n      swap2\n      swap1\n      tag_11\n      jump\t// in\n    tag_10:\n      mload(0x40)\n      dup1\n      swap2\n      sub\n      swap1\n      return\n        /* \"contracts/Marketplace.sol\":438:459  uint public itemCount */\n    tag_4:\n      tag_12\n      tag_13\n      jump\t// in\n    tag_12:\n      mload(0x40)\n      tag_14\n      swap2\n      swap1\n      tag_15\n      jump\t// in\n    tag_14:\n      mload(0x40)\n      dup1\n      swap2\n      sub\n      swap1\n      return\n        /* \"contracts/Marketplace.sol\":399:431  uint public immutable feePercent */\n    tag_5:\n      tag_16\n      tag_17\n      jump\t// in\n    tag_16:\n      mload(0x40)\n      tag_18\n      swap2\n      swap1\n      tag_15\n      jump\t// in\n    tag_18:\n      mload(0x40)\n      dup1\n      swap2\n      sub\n      swap1\n      return\n        /* \"contracts/Marketplace.sol\":637:671  mapping(uint => Item) public items */\n    tag_6:\n      tag_19\n      0x04\n      dup1\n      calldatasize\n      sub\n      dup2\n      add\n      swap1\n      tag_20\n      swap2\n      swap1\n      tag_21\n      jump\t// in\n    tag_20:\n      tag_22\n      jump\t// in\n    tag_19:\n      mload(0x40)\n      tag_23\n      swap7\n      swap6\n      swap5\n      swap4\n      swap3\n      swap2\n      swap1\n      tag_24\n      jump\t// in\n    tag_23:\n      mload(0x40)\n      dup1\n      swap2\n      sub\n      swap1\n      return\n        /* \"contracts/Marketplace.sol\":1201:1293  function makeItem(IERC721 _nft, uint _tokenId, uint _price) external nonReentrant {\r... */\n    tag_7:\n      tag_25\n      0x04\n      dup1\n      calldatasize\n      sub\n      dup2\n      add\n      swap1\n      tag_26\n      swap2\n      swap1\n      tag_27\n      jump\t// in\n    tag_26:\n      tag_28\n      jump\t// in\n    tag_25:\n      stop\n        /* \"contracts/Marketplace.sol\":349:392  address payable public immutable feeAccount */\n    tag_9:\n      immutable(\"0x9abd569a0444be7ce52d46a7fb79009940c0c0442116f15017290ff13cb4450c\")\n      dup2\n      jump\t// out\n        /* \"contracts/Marketplace.sol\":438:459  uint public itemCount */\n    tag_13:\n      sload(0x01)\n      dup2\n      jump\t// out\n        /* \"contracts/Marketplace.sol\":399:431  uint public immutable feePercent */\n    tag_17:\n      immutable(\"0xca1c98d2cee18ab5da51a9df7bbf45ca91ab83c708e48aed82f5115320306ab4\")\n      dup2\n      jump\t// out\n        /* \"contracts/Marketplace.sol\":637:671  mapping(uint => Item) public items */\n    tag_22:\n      mstore(0x20, 0x02)\n      dup1\n      0x00\n      mstore\n      keccak256(0x00, 0x40)\n      0x00\n      swap2\n      pop\n      swap1\n      pop\n      dup1\n      0x00\n      add\n      sload\n      swap1\n      dup1\n      0x01\n      add\n      0x00\n      swap1\n      sload\n      swap1\n      0x0100\n      exp\n      swap1\n      div\n      0xffffffffffffffffffffffffffffffffffffffff\n      and\n      swap1\n      dup1\n      0x02\n      add\n      sload\n      swap1\n      dup1\n      0x03\n      add\n      sload\n      swap1\n      dup1\n      0x04\n      add\n      0x00\n      swap1\n      sload\n      swap1\n      0x0100\n      exp\n      swap1\n      div\n      0xffffffffffffffffffffffffffffffffffffffff\n      and\n      swap1\n      dup1\n      0x04\n      add\n      0x14\n      swap1\n      sload\n      swap1\n      0x0100\n      exp\n      swap1\n      div\n      0xff\n      and\n      swap1\n      pop\n      dup7\n      jump\t// out\n        /* \"contracts/Marketplace.sol\":1201:1293  function makeItem(IERC721 _nft, uint _tokenId, uint _price) external nonReentrant {\r... */\n    tag_28:\n        /* \"@openzeppelin/contracts@4.5.0/security/ReentrancyGuard.sol\":1744:1745  2 */\n      0x02\n        /* \"@openzeppelin/contracts@4.5.0/security/ReentrancyGuard.sol\":2325:2332  _status */\n      sload(0x00)\n        /* \"@openzeppelin/contracts@4.5.0/security/ReentrancyGuard.sol\":2325:2344  _status != _ENTERED */\n      eq\n      iszero\n        /* \"@openzeppelin/contracts@4.5.0/security/ReentrancyGuard.sol\":2317:2380  require(_status != _ENTERED, \"ReentrancyGuard: reentrant call\") */\n      tag_30\n      jumpi\n      mload(0x40)\n      0x08c379a000000000000000000000000000000000000000000000000000000000\n      dup2\n      mstore\n      0x04\n      add\n      tag_31\n      swap1\n      tag_32\n      jump\t// in\n    tag_31:\n      mload(0x40)\n      dup1\n      swap2\n      sub\n      swap1\n      revert\n    tag_30:\n        /* \"@openzeppelin/contracts@4.5.0/security/ReentrancyGuard.sol\":1744:1745  2 */\n      0x02\n        /* \"@openzeppelin/contracts@4.5.0/security/ReentrancyGuard.sol\":2455:2462  _status */\n      0x00\n        /* \"@openzeppelin/contracts@4.5.0/security/ReentrancyGuard.sol\":2455:2473  _status = _ENTERED */\n      dup2\n      swap1\n      sstore\n      pop\n        /* \"@openzeppelin/contracts@4.5.0/security/ReentrancyGuard.sol\":1701:1702  1 */\n      0x01\n        /* \"@openzeppelin/contracts@4.5.0/security/ReentrancyGuard.sol\":2628:2635  _status */\n      0x00\n        /* \"@openzeppelin/contracts@4.5.0/security/ReentrancyGuard.sol\":2628:2650  _status = _NOT_ENTERED */\n      dup2\n      swap1\n      sstore\n      pop\n        /* \"contracts/Marketplace.sol\":1201:1293  function makeItem(IERC721 _nft, uint _tokenId, uint _price) external nonReentrant {\r... */\n      pop\n      pop\n      pop\n      jump\t// out\n        /* \"#utility.yul\":7:176   */\n    tag_35:\n        /* \"#utility.yul\":68:73   */\n      0x00\n        /* \"#utility.yul\":106:112   */\n      dup2\n        /* \"#utility.yul\":93:113   */\n      calldataload\n        /* \"#utility.yul\":84:113   */\n      swap1\n      pop\n        /* \"#utility.yul\":122:170   */\n      tag_37\n        /* \"#utility.yul\":164:169   */\n      dup2\n        /* \"#utility.yul\":122:170   */\n      tag_38\n      jump\t// in\n    tag_37:\n        /* \"#utility.yul\":74:176   */\n      swap3\n      swap2\n      pop\n      pop\n      jump\t// out\n        /* \"#utility.yul\":182:321   */\n    tag_39:\n        /* \"#utility.yul\":228:233   */\n      0x00\n        /* \"#utility.yul\":266:272   */\n      dup2\n        /* \"#utility.yul\":253:273   */\n      calldataload\n        /* \"#utility.yul\":244:273   */\n      swap1\n      pop\n        /* \"#utility.yul\":282:315   */\n      tag_41\n        /* \"#utility.yul\":309:314   */\n      dup2\n        /* \"#utility.yul\":282:315   */\n      tag_42\n      jump\t// in\n    tag_41:\n        /* \"#utility.yul\":234:321   */\n      swap3\n      swap2\n      pop\n      pop\n      jump\t// out\n        /* \"#utility.yul\":327:909   */\n    tag_27:\n        /* \"#utility.yul\":419:425   */\n      0x00\n        /* \"#utility.yul\":427:433   */\n      dup1\n        /* \"#utility.yul\":435:441   */\n      0x00\n        /* \"#utility.yul\":484:486   */\n      0x60\n        /* \"#utility.yul\":472:481   */\n      dup5\n        /* \"#utility.yul\":463:470   */\n      dup7\n        /* \"#utility.yul\":459:482   */\n      sub\n        /* \"#utility.yul\":455:487   */\n      slt\n        /* \"#utility.yul\":452:454   */\n      iszero\n      tag_44\n      jumpi\n        /* \"#utility.yul\":500:501   */\n      0x00\n        /* \"#utility.yul\":497:498   */\n      dup1\n        /* \"#utility.yul\":490:502   */\n      revert\n        /* \"#utility.yul\":452:454   */\n    tag_44:\n        /* \"#utility.yul\":543:544   */\n      0x00\n        /* \"#utility.yul\":568:636   */\n      tag_45\n        /* \"#utility.yul\":628:635   */\n      dup7\n        /* \"#utility.yul\":619:625   */\n      dup3\n        /* \"#utility.yul\":608:617   */\n      dup8\n        /* \"#utility.yul\":604:626   */\n      add\n        /* \"#utility.yul\":568:636   */\n      tag_35\n      jump\t// in\n    tag_45:\n        /* \"#utility.yul\":558:636   */\n      swap4\n      pop\n        /* \"#utility.yul\":514:646   */\n      pop\n        /* \"#utility.yul\":685:687   */\n      0x20\n        /* \"#utility.yul\":711:764   */\n      tag_46\n        /* \"#utility.yul\":756:763   */\n      dup7\n        /* \"#utility.yul\":747:753   */\n      dup3\n        /* \"#utility.yul\":736:745   */\n      dup8\n        /* \"#utility.yul\":732:754   */\n      add\n        /* \"#utility.yul\":711:764   */\n      tag_39\n      jump\t// in\n    tag_46:\n        /* \"#utility.yul\":701:764   */\n      swap3\n      pop\n        /* \"#utility.yul\":656:774   */\n      pop\n        /* \"#utility.yul\":813:815   */\n      0x40\n        /* \"#utility.yul\":839:892   */\n      tag_47\n        /* \"#utility.yul\":884:891   */\n      dup7\n        /* \"#utility.yul\":875:881   */\n      dup3\n        /* \"#utility.yul\":864:873   */\n      dup8\n        /* \"#utility.yul\":860:882   */\n      add\n        /* \"#utility.yul\":839:892   */\n      tag_39\n      jump\t// in\n    tag_47:\n        /* \"#utility.yul\":829:892   */\n      swap2\n      pop\n        /* \"#utility.yul\":784:902   */\n      pop\n        /* \"#utility.yul\":442:909   */\n      swap3\n      pop\n      swap3\n      pop\n      swap3\n      jump\t// out\n        /* \"#utility.yul\":915:1177   */\n    tag_21:\n        /* \"#utility.yul\":974:980   */\n      0x00\n        /* \"#utility.yul\":1023:1025   */\n      0x20\n        /* \"#utility.yul\":1011:1020   */\n      dup3\n        /* \"#utility.yul\":1002:1009   */\n      dup5\n        /* \"#utility.yul\":998:1021   */\n      sub\n        /* \"#utility.yul\":994:1026   */\n      slt\n        /* \"#utility.yul\":991:993   */\n      iszero\n      tag_49\n      jumpi\n        /* \"#utility.yul\":1039:1040   */\n      0x00\n        /* \"#utility.yul\":1036:1037   */\n      dup1\n        /* \"#utility.yul\":1029:1041   */\n      revert\n        /* \"#utility.yul\":991:993   */\n    tag_49:\n        /* \"#utility.yul\":1082:1083   */\n      0x00\n        /* \"#utility.yul\":1107:1160   */\n      tag_50\n        /* \"#utility.yul\":1152:1159   */\n      dup5\n        /* \"#utility.yul\":1143:1149   */\n      dup3\n        /* \"#utility.yul\":1132:1141   */\n      dup6\n        /* \"#utility.yul\":1128:1150   */\n      add\n        /* \"#utility.yul\":1107:1160   */\n      tag_39\n      jump\t// in\n    tag_50:\n        /* \"#utility.yul\":1097:1160   */\n      swap2\n      pop\n        /* \"#utility.yul\":1053:1170   */\n      pop\n        /* \"#utility.yul\":981:1177   */\n      swap3\n      swap2\n      pop\n      pop\n      jump\t// out\n        /* \"#utility.yul\":1183:1325   */\n    tag_51:\n        /* \"#utility.yul\":1286:1318   */\n      tag_53\n        /* \"#utility.yul\":1312:1317   */\n      dup2\n        /* \"#utility.yul\":1286:1318   */\n      tag_54\n      jump\t// in\n    tag_53:\n        /* \"#utility.yul\":1281:1284   */\n      dup3\n        /* \"#utility.yul\":1274:1319   */\n      mstore\n        /* \"#utility.yul\":1264:1325   */\n      pop\n      pop\n      jump\t// out\n        /* \"#utility.yul\":1331:1440   */\n    tag_55:\n        /* \"#utility.yul\":1412:1433   */\n      tag_57\n        /* \"#utility.yul\":1427:1432   */\n      dup2\n        /* \"#utility.yul\":1412:1433   */\n      tag_58\n      jump\t// in\n    tag_57:\n        /* \"#utility.yul\":1407:1410   */\n      dup3\n        /* \"#utility.yul\":1400:1434   */\n      mstore\n        /* \"#utility.yul\":1390:1440   */\n      pop\n      pop\n      jump\t// out\n        /* \"#utility.yul\":1446:1607   */\n    tag_59:\n        /* \"#utility.yul\":1548:1600   */\n      tag_61\n        /* \"#utility.yul\":1594:1599   */\n      dup2\n        /* \"#utility.yul\":1548:1600   */\n      tag_62\n      jump\t// in\n    tag_61:\n        /* \"#utility.yul\":1543:1546   */\n      dup3\n        /* \"#utility.yul\":1536:1601   */\n      mstore\n        /* \"#utility.yul\":1526:1607   */\n      pop\n      pop\n      jump\t// out\n        /* \"#utility.yul\":1613:1979   */\n    tag_63:\n        /* \"#utility.yul\":1755:1758   */\n      0x00\n        /* \"#utility.yul\":1776:1843   */\n      tag_65\n        /* \"#utility.yul\":1840:1842   */\n      0x1f\n        /* \"#utility.yul\":1835:1838   */\n      dup4\n        /* \"#utility.yul\":1776:1843   */\n      tag_66\n      jump\t// in\n    tag_65:\n        /* \"#utility.yul\":1769:1843   */\n      swap2\n      pop\n        /* \"#utility.yul\":1852:1945   */\n      tag_67\n        /* \"#utility.yul\":1941:1944   */\n      dup3\n        /* \"#utility.yul\":1852:1945   */\n      tag_68\n      jump\t// in\n    tag_67:\n        /* \"#utility.yul\":1970:1972   */\n      0x20\n        /* \"#utility.yul\":1965:1968   */\n      dup3\n        /* \"#utility.yul\":1961:1973   */\n      add\n        /* \"#utility.yul\":1954:1973   */\n      swap1\n      pop\n        /* \"#utility.yul\":1759:1979   */\n      swap2\n      swap1\n      pop\n      jump\t// out\n        /* \"#utility.yul\":1985:2103   */\n    tag_69:\n        /* \"#utility.yul\":2072:2096   */\n      tag_71\n        /* \"#utility.yul\":2090:2095   */\n      dup2\n        /* \"#utility.yul\":2072:2096   */\n      tag_72\n      jump\t// in\n    tag_71:\n        /* \"#utility.yul\":2067:2070   */\n      dup3\n        /* \"#utility.yul\":2060:2097   */\n      mstore\n        /* \"#utility.yul\":2050:2103   */\n      pop\n      pop\n      jump\t// out\n        /* \"#utility.yul\":2109:2363   */\n    tag_11:\n        /* \"#utility.yul\":2218:2222   */\n      0x00\n        /* \"#utility.yul\":2256:2258   */\n      0x20\n        /* \"#utility.yul\":2245:2254   */\n      dup3\n        /* \"#utility.yul\":2241:2259   */\n      add\n        /* \"#utility.yul\":2233:2259   */\n      swap1\n      pop\n        /* \"#utility.yul\":2269:2356   */\n      tag_74\n        /* \"#utility.yul\":2353:2354   */\n      0x00\n        /* \"#utility.yul\":2342:2351   */\n      dup4\n        /* \"#utility.yul\":2338:2355   */\n      add\n        /* \"#utility.yul\":2329:2335   */\n      dup5\n        /* \"#utility.yul\":2269:2356   */\n      tag_51\n      jump\t// in\n    tag_74:\n        /* \"#utility.yul\":2223:2363   */\n      swap3\n      swap2\n      pop\n      pop\n      jump\t// out\n        /* \"#utility.yul\":2369:2788   */\n    tag_32:\n        /* \"#utility.yul\":2535:2539   */\n      0x00\n        /* \"#utility.yul\":2573:2575   */\n      0x20\n        /* \"#utility.yul\":2562:2571   */\n      dup3\n        /* \"#utility.yul\":2558:2576   */\n      add\n        /* \"#utility.yul\":2550:2576   */\n      swap1\n      pop\n        /* \"#utility.yul\":2622:2631   */\n      dup2\n        /* \"#utility.yul\":2616:2620   */\n      dup2\n        /* \"#utility.yul\":2612:2632   */\n      sub\n        /* \"#utility.yul\":2608:2609   */\n      0x00\n        /* \"#utility.yul\":2597:2606   */\n      dup4\n        /* \"#utility.yul\":2593:2610   */\n      add\n        /* \"#utility.yul\":2586:2633   */\n      mstore\n        /* \"#utility.yul\":2650:2781   */\n      tag_76\n        /* \"#utility.yul\":2776:2780   */\n      dup2\n        /* \"#utility.yul\":2650:2781   */\n      tag_63\n      jump\t// in\n    tag_76:\n        /* \"#utility.yul\":2642:2781   */\n      swap1\n      pop\n        /* \"#utility.yul\":2540:2788   */\n      swap2\n      swap1\n      pop\n      jump\t// out\n        /* \"#utility.yul\":2794:3016   */\n    tag_15:\n        /* \"#utility.yul\":2887:2891   */\n      0x00\n        /* \"#utility.yul\":2925:2927   */\n      0x20\n        /* \"#utility.yul\":2914:2923   */\n      dup3\n        /* \"#utility.yul\":2910:2928   */\n      add\n        /* \"#utility.yul\":2902:2928   */\n      swap1\n      pop\n        /* \"#utility.yul\":2938:3009   */\n      tag_78\n        /* \"#utility.yul\":3006:3007   */\n      0x00\n        /* \"#utility.yul\":2995:3004   */\n      dup4\n        /* \"#utility.yul\":2991:3008   */\n      add\n        /* \"#utility.yul\":2982:2988   */\n      dup5\n        /* \"#utility.yul\":2938:3009   */\n      tag_69\n      jump\t// in\n    tag_78:\n        /* \"#utility.yul\":2892:3016   */\n      swap3\n      swap2\n      pop\n      pop\n      jump\t// out\n        /* \"#utility.yul\":3022:3847   */\n    tag_24:\n        /* \"#utility.yul\":3280:3284   */\n      0x00\n        /* \"#utility.yul\":3318:3321   */\n      0xc0\n        /* \"#utility.yul\":3307:3316   */\n      dup3\n        /* \"#utility.yul\":3303:3322   */\n      add\n        /* \"#utility.yul\":3295:3322   */\n      swap1\n      pop\n        /* \"#utility.yul\":3332:3403   */\n      tag_80\n        /* \"#utility.yul\":3400:3401   */\n      0x00\n        /* \"#utility.yul\":3389:3398   */\n      dup4\n        /* \"#utility.yul\":3385:3402   */\n      add\n        /* \"#utility.yul\":3376:3382   */\n      dup10\n        /* \"#utility.yul\":3332:3403   */\n      tag_69\n      jump\t// in\n    tag_80:\n        /* \"#utility.yul\":3413:3500   */\n      tag_81\n        /* \"#utility.yul\":3496:3498   */\n      0x20\n        /* \"#utility.yul\":3485:3494   */\n      dup4\n        /* \"#utility.yul\":3481:3499   */\n      add\n        /* \"#utility.yul\":3472:3478   */\n      dup9\n        /* \"#utility.yul\":3413:3500   */\n      tag_59\n      jump\t// in\n    tag_81:\n        /* \"#utility.yul\":3510:3582   */\n      tag_82\n        /* \"#utility.yul\":3578:3580   */\n      0x40\n        /* \"#utility.yul\":3567:3576   */\n      dup4\n        /* \"#utility.yul\":3563:3581   */\n      add\n        /* \"#utility.yul\":3554:3560   */\n      dup8\n        /* \"#utility.yul\":3510:3582   */\n      tag_69\n      jump\t// in\n    tag_82:\n        /* \"#utility.yul\":3592:3664   */\n      tag_83\n        /* \"#utility.yul\":3660:3662   */\n      0x60\n        /* \"#utility.yul\":3649:3658   */\n      dup4\n        /* \"#utility.yul\":3645:3663   */\n      add\n        /* \"#utility.yul\":3636:3642   */\n      dup7\n        /* \"#utility.yul\":3592:3664   */\n      tag_69\n      jump\t// in\n    tag_83:\n        /* \"#utility.yul\":3674:3763   */\n      tag_84\n        /* \"#utility.yul\":3758:3761   */\n      0x80\n        /* \"#utility.yul\":3747:3756   */\n      dup4\n        /* \"#utility.yul\":3743:3762   */\n      add\n        /* \"#utility.yul\":3734:3740   */\n      dup6\n        /* \"#utility.yul\":3674:3763   */\n      tag_51\n      jump\t// in\n    tag_84:\n        /* \"#utility.yul\":3773:3840   */\n      tag_85\n        /* \"#utility.yul\":3835:3838   */\n      0xa0\n        /* \"#utility.yul\":3824:3833   */\n      dup4\n        /* \"#utility.yul\":3820:3839   */\n      add\n        /* \"#utility.yul\":3811:3817   */\n      dup5\n        /* \"#utility.yul\":3773:3840   */\n      tag_55\n      jump\t// in\n    tag_85:\n        /* \"#utility.yul\":3285:3847   */\n      swap8\n      swap7\n      pop\n      pop\n      pop\n      pop\n      pop\n      pop\n      pop\n      jump\t// out\n        /* \"#utility.yul\":3853:4022   */\n    tag_66:\n        /* \"#utility.yul\":3937:3948   */\n      0x00\n        /* \"#utility.yul\":3971:3977   */\n      dup3\n        /* \"#utility.yul\":3966:3969   */\n      dup3\n        /* \"#utility.yul\":3959:3978   */\n      mstore\n        /* \"#utility.yul\":4011:4015   */\n      0x20\n        /* \"#utility.yul\":4006:4009   */\n      dup3\n        /* \"#utility.yul\":4002:4016   */\n      add\n        /* \"#utility.yul\":3987:4016   */\n      swap1\n      pop\n        /* \"#utility.yul\":3949:4022   */\n      swap3\n      swap2\n      pop\n      pop\n      jump\t// out\n        /* \"#utility.yul\":4028:4124   */\n    tag_87:\n        /* \"#utility.yul\":4065:4072   */\n      0x00\n        /* \"#utility.yul\":4094:4118   */\n      tag_89\n        /* \"#utility.yul\":4112:4117   */\n      dup3\n        /* \"#utility.yul\":4094:4118   */\n      tag_90\n      jump\t// in\n    tag_89:\n        /* \"#utility.yul\":4083:4118   */\n      swap1\n      pop\n        /* \"#utility.yul\":4073:4124   */\n      swap2\n      swap1\n      pop\n      jump\t// out\n        /* \"#utility.yul\":4130:4234   */\n    tag_54:\n        /* \"#utility.yul\":4175:4182   */\n      0x00\n        /* \"#utility.yul\":4204:4228   */\n      tag_92\n        /* \"#utility.yul\":4222:4227   */\n      dup3\n        /* \"#utility.yul\":4204:4228   */\n      tag_90\n      jump\t// in\n    tag_92:\n        /* \"#utility.yul\":4193:4228   */\n      swap1\n      pop\n        /* \"#utility.yul\":4183:4234   */\n      swap2\n      swap1\n      pop\n      jump\t// out\n        /* \"#utility.yul\":4240:4330   */\n    tag_58:\n        /* \"#utility.yul\":4274:4281   */\n      0x00\n        /* \"#utility.yul\":4317:4322   */\n      dup2\n        /* \"#utility.yul\":4310:4323   */\n      iszero\n        /* \"#utility.yul\":4303:4324   */\n      iszero\n        /* \"#utility.yul\":4292:4324   */\n      swap1\n      pop\n        /* \"#utility.yul\":4282:4330   */\n      swap2\n      swap1\n      pop\n      jump\t// out\n        /* \"#utility.yul\":4336:4447   */\n    tag_94:\n        /* \"#utility.yul\":4388:4395   */\n      0x00\n        /* \"#utility.yul\":4417:4441   */\n      tag_96\n        /* \"#utility.yul\":4435:4440   */\n      dup3\n        /* \"#utility.yul\":4417:4441   */\n      tag_87\n      jump\t// in\n    tag_96:\n        /* \"#utility.yul\":4406:4441   */\n      swap1\n      pop\n        /* \"#utility.yul\":4396:4447   */\n      swap2\n      swap1\n      pop\n      jump\t// out\n        /* \"#utility.yul\":4453:4579   */\n    tag_90:\n        /* \"#utility.yul\":4490:4497   */\n      0x00\n        /* \"#utility.yul\":4530:4572   */\n      0xffffffffffffffffffffffffffffffffffffffff\n        /* \"#utility.yul\":4523:4528   */\n      dup3\n        /* \"#utility.yul\":4519:4573   */\n      and\n        /* \"#utility.yul\":4508:4573   */\n      swap1\n      pop\n        /* \"#utility.yul\":4498:4579   */\n      swap2\n      swap1\n      pop\n      jump\t// out\n        /* \"#utility.yul\":4585:4662   */\n    tag_72:\n        /* \"#utility.yul\":4622:4629   */\n      0x00\n        /* \"#utility.yul\":4651:4656   */\n      dup2\n        /* \"#utility.yul\":4640:4656   */\n      swap1\n      pop\n        /* \"#utility.yul\":4630:4662   */\n      swap2\n      swap1\n      pop\n      jump\t// out\n        /* \"#utility.yul\":4668:4824   */\n    tag_62:\n        /* \"#utility.yul\":4733:4742   */\n      0x00\n        /* \"#utility.yul\":4766:4818   */\n      tag_100\n        /* \"#utility.yul\":4812:4817   */\n      dup3\n        /* \"#utility.yul\":4766:4818   */\n      tag_101\n      jump\t// in\n    tag_100:\n        /* \"#utility.yul\":4753:4818   */\n      swap1\n      pop\n        /* \"#utility.yul\":4743:4824   */\n      swap2\n      swap1\n      pop\n      jump\t// out\n        /* \"#utility.yul\":4830:4958   */\n    tag_101:\n        /* \"#utility.yul\":4895:4904   */\n      0x00\n        /* \"#utility.yul\":4928:4952   */\n      tag_103\n        /* \"#utility.yul\":4946:4951   */\n      dup3\n        /* \"#utility.yul\":4928:4952   */\n      tag_90\n      jump\t// in\n    tag_103:\n        /* \"#utility.yul\":4915:4952   */\n      swap1\n      pop\n        /* \"#utility.yul\":4905:4958   */\n      swap2\n      swap1\n      pop\n      jump\t// out\n        /* \"#utility.yul\":4964:5145   */\n    tag_68:\n        /* \"#utility.yul\":5104:5137   */\n      0x5265656e7472616e637947756172643a207265656e7472616e742063616c6c00\n        /* \"#utility.yul\":5100:5101   */\n      0x00\n        /* \"#utility.yul\":5092:5098   */\n      dup3\n        /* \"#utility.yul\":5088:5102   */\n      add\n        /* \"#utility.yul\":5081:5138   */\n      mstore\n        /* \"#utility.yul\":5070:5145   */\n      pop\n      jump\t// out\n        /* \"#utility.yul\":5151:5303   */\n    tag_38:\n        /* \"#utility.yul\":5239:5278   */\n      tag_106\n        /* \"#utility.yul\":5272:5277   */\n      dup2\n        /* \"#utility.yul\":5239:5278   */\n      tag_94\n      jump\t// in\n    tag_106:\n        /* \"#utility.yul\":5232:5237   */\n      dup2\n        /* \"#utility.yul\":5229:5279   */\n      eq\n        /* \"#utility.yul\":5219:5221   */\n      tag_107\n      jumpi\n        /* \"#utility.yul\":5293:5294   */\n      0x00\n        /* \"#utility.yul\":5290:5291   */\n      dup1\n        /* \"#utility.yul\":5283:5295   */\n      revert\n        /* \"#utility.yul\":5219:5221   */\n    tag_107:\n        /* \"#utility.yul\":5209:5303   */\n      pop\n      jump\t// out\n        /* \"#utility.yul\":5309:5431   */\n    tag_42:\n        /* \"#utility.yul\":5382:5406   */\n      tag_109\n        /* \"#utility.yul\":5400:5405   */\n      dup2\n        /* \"#utility.yul\":5382:5406   */\n      tag_72\n      jump\t// in\n    tag_109:\n        /* \"#utility.yul\":5375:5380   */\n      dup2\n        /* \"#utility.yul\":5372:5407   */\n      eq\n        /* \"#utility.yul\":5362:5364   */\n      tag_110\n      jumpi\n        /* \"#utility.yul\":5421:5422   */\n      0x00\n        /* \"#utility.yul\":5418:5419   */\n      dup1\n        /* \"#utility.yul\":5411:5423   */\n      revert\n        /* \"#utility.yul\":5362:5364   */\n    tag_110:\n        /* \"#utility.yul\":5352:5431   */\n      pop\n      jump\t// out\n\n    auxdata: 0xa2646970667358221220d58cae10276404ea1ead886ba260a615217702551a493549ab446463b2b6b38364736f6c63430008040033\n}\n",
				"bytecode": {
					"linkReferences": {},
					"object": "60c060405234801561001057600080fd5b5060405161062538038061062583398181016040528101906100329190610094565b60016000819055503373ffffffffffffffffffffffffffffffffffffffff1660808173ffffffffffffffffffffffffffffffffffffffff1660601b815250508060a08181525050506100de565b60008151905061008e816100c7565b92915050565b6000602082840312156100a657600080fd5b60006100b48482850161007f565b91505092915050565b6000819050919050565b6100d0816100bd565b81146100db57600080fd5b50565b60805160601c60a05161051f610106600039600061013301526000610109015261051f6000f3fe608060405234801561001057600080fd5b50600436106100575760003560e01c806365e17c9d1461005c5780636bfb0d011461007a5780637fd6f15c14610098578063bfb231d2146100b6578063fa00afc7146100eb575b600080fd5b610064610107565b604051610071919061033a565b60405180910390f35b61008261012b565b60405161008f9190610375565b60405180910390f35b6100a0610131565b6040516100ad9190610375565b60405180910390f35b6100d060048036038101906100cb91906102b2565b610155565b6040516100e296959493929190610390565b60405180910390f35b61010560048036038101906101009190610263565b6101de565b005b7f000000000000000000000000000000000000000000000000000000000000000081565b60015481565b7f000000000000000000000000000000000000000000000000000000000000000081565b60026020528060005260406000206000915090508060000154908060010160009054906101000a900473ffffffffffffffffffffffffffffffffffffffff16908060020154908060030154908060040160009054906101000a900473ffffffffffffffffffffffffffffffffffffffff16908060040160149054906101000a900460ff16905086565b60026000541415610224576040517f08c379a000000000000000000000000000000000000000000000000000000000815260040161021b90610355565b60405180910390fd5b60026000819055506001600081905550505050565b600081359050610248816104bb565b92915050565b60008135905061025d816104d2565b92915050565b60008060006060848603121561027857600080fd5b600061028686828701610239565b93505060206102978682870161024e565b92505060406102a88682870161024e565b9150509250925092565b6000602082840312156102c457600080fd5b60006102d28482850161024e565b91505092915050565b6102e481610414565b82525050565b6102f381610426565b82525050565b6103028161046e565b82525050565b6000610315601f836103f1565b915061032082610492565b602082019050919050565b61033481610464565b82525050565b600060208201905061034f60008301846102db565b92915050565b6000602082019050818103600083015261036e81610308565b9050919050565b600060208201905061038a600083018461032b565b92915050565b600060c0820190506103a5600083018961032b565b6103b260208301886102f9565b6103bf604083018761032b565b6103cc606083018661032b565b6103d960808301856102db565b6103e660a08301846102ea565b979650505050505050565b600082825260208201905092915050565b600061040d82610444565b9050919050565b600061041f82610444565b9050919050565b60008115159050919050565b600061043d82610402565b9050919050565b600073ffffffffffffffffffffffffffffffffffffffff82169050919050565b6000819050919050565b600061047982610480565b9050919050565b600061048b82610444565b9050919050565b7f5265656e7472616e637947756172643a207265656e7472616e742063616c6c00600082015250565b6104c481610432565b81146104cf57600080fd5b50565b6104db81610464565b81146104e657600080fd5b5056fea2646970667358221220d58cae10276404ea1ead886ba260a615217702551a493549ab446463b2b6b38364736f6c63430008040033",
					"opcodes": "PUSH1 0xC0 PUSH1 0x40 MSTORE CALLVALUE DUP1 ISZERO PUSH2 0x10 JUMPI PUSH1 0x0 DUP1 REVERT JUMPDEST POP PUSH1 0x40 MLOAD PUSH2 0x625 CODESIZE SUB DUP1 PUSH2 0x625 DUP4 CODECOPY DUP2 DUP2 ADD PUSH1 0x40 MSTORE DUP2 ADD SWAP1 PUSH2 0x32 SWAP2 SWAP1 PUSH2 0x94 JUMP JUMPDEST PUSH1 0x1 PUSH1 0x0 DUP2 SWAP1 SSTORE POP CALLER PUSH20 0xFFFFFFFFFFFFFFFFFFFFFFFFFFFFFFFFFFFFFFFF AND PUSH1 0x80 DUP2 PUSH20 0xFFFFFFFFFFFFFFFFFFFFFFFFFFFFFFFFFFFFFFFF AND PUSH1 0x60 SHL DUP2 MSTORE POP POP DUP1 PUSH1 0xA0 DUP2 DUP2 MSTORE POP POP POP PUSH2 0xDE JUMP JUMPDEST PUSH1 0x0 DUP2 MLOAD SWAP1 POP PUSH2 0x8E DUP2 PUSH2 0xC7 JUMP JUMPDEST SWAP3 SWAP2 POP POP JUMP JUMPDEST PUSH1 0x0 PUSH1 0x20 DUP3 DUP5 SUB SLT ISZERO PUSH2 0xA6 JUMPI PUSH1 0x0 DUP1 REVERT JUMPDEST PUSH1 0x0 PUSH2 0xB4 DUP5 DUP3 DUP6 ADD PUSH2 0x7F JUMP JUMPDEST SWAP2 POP POP SWAP3 SWAP2 POP POP JUMP JUMPDEST PUSH1 0x0 DUP2 SWAP1 POP SWAP2 SWAP1 POP JUMP JUMPDEST PUSH2 0xD0 DUP2 PUSH2 0xBD JUMP JUMPDEST DUP2 EQ PUSH2 0xDB JUMPI PUSH1 0x0 DUP1 REVERT JUMPDEST POP JUMP JUMPDEST PUSH1 0x80 MLOAD PUSH1 0x60 SHR PUSH1 0xA0 MLOAD PUSH2 0x51F PUSH2 0x106 PUSH1 0x0 CODECOPY PUSH1 0x0 PUSH2 0x133 ADD MSTORE PUSH1 0x0 PUSH2 0x109 ADD MSTORE PUSH2 0x51F PUSH1 0x0 RETURN INVALID PUSH1 0x80 PUSH1 0x40 MSTORE CALLVALUE DUP1 ISZERO PUSH2 0x10 JUMPI PUSH1 0x0 DUP1 REVERT JUMPDEST POP PUSH1 0x4 CALLDATASIZE LT PUSH2 0x57 JUMPI PUSH1 0x0 CALLDATALOAD PUSH1 0xE0 SHR DUP1 PUSH4 0x65E17C9D EQ PUSH2 0x5C JUMPI DUP1 PUSH4 0x6BFB0D01 EQ PUSH2 0x7A JUMPI DUP1 PUSH4 0x7FD6F15C EQ PUSH2 0x98 JUMPI DUP1 PUSH4 0xBFB231D2 EQ PUSH2 0xB6 JUMPI DUP1 PUSH4 0xFA00AFC7 EQ PUSH2 0xEB JUMPI JUMPDEST PUSH1 0x0 DUP1 REVERT JUMPDEST PUSH2 0x64 PUSH2 0x107 JUMP JUMPDEST PUSH1 0x40 MLOAD PUSH2 0x71 SWAP2 SWAP1 PUSH2 0x33A JUMP JUMPDEST PUSH1 0x40 MLOAD DUP1 SWAP2 SUB SWAP1 RETURN JUMPDEST PUSH2 0x82 PUSH2 0x12B JUMP JUMPDEST PUSH1 0x40 MLOAD PUSH2 0x8F SWAP2 SWAP1 PUSH2 0x375 JUMP JUMPDEST PUSH1 0x40 MLOAD DUP1 SWAP2 SUB SWAP1 RETURN JUMPDEST PUSH2 0xA0 PUSH2 0x131 JUMP JUMPDEST PUSH1 0x40 MLOAD PUSH2 0xAD SWAP2 SWAP1 PUSH2 0x375 JUMP JUMPDEST PUSH1 0x40 MLOAD DUP1 SWAP2 SUB SWAP1 RETURN JUMPDEST PUSH2 0xD0 PUSH1 0x4 DUP1 CALLDATASIZE SUB DUP2 ADD SWAP1 PUSH2 0xCB SWAP2 SWAP1 PUSH2 0x2B2 JUMP JUMPDEST PUSH2 0x155 JUMP JUMPDEST PUSH1 0x40 MLOAD PUSH2 0xE2 SWAP7 SWAP6 SWAP5 SWAP4 SWAP3 SWAP2 SWAP1 PUSH2 0x390 JUMP JUMPDEST PUSH1 0x40 MLOAD DUP1 SWAP2 SUB SWAP1 RETURN JUMPDEST PUSH2 0x105 PUSH1 0x4 DUP1 CALLDATASIZE SUB DUP2 ADD SWAP1 PUSH2 0x100 SWAP2 SWAP1 PUSH2 0x263 JUMP JUMPDEST PUSH2 0x1DE JUMP JUMPDEST STOP JUMPDEST PUSH32 0x0 DUP2 JUMP JUMPDEST PUSH1 0x1 SLOAD DUP2 JUMP JUMPDEST PUSH32 0x0 DUP2 JUMP JUMPDEST PUSH1 0x2 PUSH1 0x20 MSTORE DUP1 PUSH1 0x0 MSTORE PUSH1 0x40 PUSH1 0x0 KECCAK256 PUSH1 0x0 SWAP2 POP SWAP1 POP DUP1 PUSH1 0x0 ADD SLOAD SWAP1 DUP1 PUSH1 0x1 ADD PUSH1 0x0 SWAP1 SLOAD SWAP1 PUSH2 0x100 EXP SWAP1 DIV PUSH20 0xFFFFFFFFFFFFFFFFFFFFFFFFFFFFFFFFFFFFFFFF AND SWAP1 DUP1 PUSH1 0x2 ADD SLOAD SWAP1 DUP1 PUSH1 0x3 ADD SLOAD SWAP1 DUP1 PUSH1 0x4 ADD PUSH1 0x0 SWAP1 SLOAD SWAP1 PUSH2 0x100 EXP SWAP1 DIV PUSH20 0xFFFFFFFFFFFFFFFFFFFFFFFFFFFFFFFFFFFFFFFF AND SWAP1 DUP1 PUSH1 0x4 ADD PUSH1 0x14 SWAP1 SLOAD SWAP1 PUSH2 0x100 EXP SWAP1 DIV PUSH1 0xFF AND SWAP1 POP DUP7 JUMP JUMPDEST PUSH1 0x2 PUSH1 0x0 SLOAD EQ ISZERO PUSH2 0x224 JUMPI PUSH1 0x40 MLOAD PUSH32 0x8C379A000000000000000000000000000000000000000000000000000000000 DUP2 MSTORE PUSH1 0x4 ADD PUSH2 0x21B SWAP1 PUSH2 0x355 JUMP JUMPDEST PUSH1 0x40 MLOAD DUP1 SWAP2 SUB SWAP1 REVERT JUMPDEST PUSH1 0x2 PUSH1 0x0 DUP2 SWAP1 SSTORE POP PUSH1 0x1 PUSH1 0x0 DUP2 SWAP1 SSTORE POP POP POP POP JUMP JUMPDEST PUSH1 0x0 DUP2 CALLDATALOAD SWAP1 POP PUSH2 0x248 DUP2 PUSH2 0x4BB JUMP JUMPDEST SWAP3 SWAP2 POP POP JUMP JUMPDEST PUSH1 0x0 DUP2 CALLDATALOAD SWAP1 POP PUSH2 0x25D DUP2 PUSH2 0x4D2 JUMP JUMPDEST SWAP3 SWAP2 POP POP JUMP JUMPDEST PUSH1 0x0 DUP1 PUSH1 0x0 PUSH1 0x60 DUP5 DUP7 SUB SLT ISZERO PUSH2 0x278 JUMPI PUSH1 0x0 DUP1 REVERT JUMPDEST PUSH1 0x0 PUSH2 0x286 DUP7 DUP3 DUP8 ADD PUSH2 0x239 JUMP JUMPDEST SWAP4 POP POP PUSH1 0x20 PUSH2 0x297 DUP7 DUP3 DUP8 ADD PUSH2 0x24E JUMP JUMPDEST SWAP3 POP POP PUSH1 0x40 PUSH2 0x2A8 DUP7 DUP3 DUP8 ADD PUSH2 0x24E JUMP JUMPDEST SWAP2 POP POP SWAP3 POP SWAP3 POP SWAP3 JUMP JUMPDEST PUSH1 0x0 PUSH1 0x20 DUP3 DUP5 SUB SLT ISZERO PUSH2 0x2C4 JUMPI PUSH1 0x0 DUP1 REVERT JUMPDEST PUSH1 0x0 PUSH2 0x2D2 DUP5 DUP3 DUP6 ADD PUSH2 0x24E JUMP JUMPDEST SWAP2 POP POP SWAP3 SWAP2 POP POP JUMP JUMPDEST PUSH2 0x2E4 DUP2 PUSH2 0x414 JUMP JUMPDEST DUP3 MSTORE POP POP JUMP JUMPDEST PUSH2 0x2F3 DUP2 PUSH2 0x426 JUMP JUMPDEST DUP3 MSTORE POP POP JUMP JUMPDEST PUSH2 0x302 DUP2 PUSH2 0x46E JUMP JUMPDEST DUP3 MSTORE POP POP JUMP JUMPDEST PUSH1 0x0 PUSH2 0x315 PUSH1 0x1F DUP4 PUSH2 0x3F1 JUMP JUMPDEST SWAP2 POP PUSH2 0x320 DUP3 PUSH2 0x492 JUMP JUMPDEST PUSH1 0x20 DUP3 ADD SWAP1 POP SWAP2 SWAP1 POP JUMP JUMPDEST PUSH2 0x334 DUP2 PUSH2 0x464 JUMP JUMPDEST DUP3 MSTORE POP POP JUMP JUMPDEST PUSH1 0x0 PUSH1 0x20 DUP3 ADD SWAP1 POP PUSH2 0x34F PUSH1 0x0 DUP4 ADD DUP5 PUSH2 0x2DB JUMP JUMPDEST SWAP3 SWAP2 POP POP JUMP JUMPDEST PUSH1 0x0 PUSH1 0x20 DUP3 ADD SWAP1 POP DUP2 DUP2 SUB PUSH1 0x0 DUP4 ADD MSTORE PUSH2 0x36E DUP2 PUSH2 0x308 JUMP JUMPDEST SWAP1 POP SWAP2 SWAP1 POP JUMP JUMPDEST PUSH1 0x0 PUSH1 0x20 DUP3 ADD SWAP1 POP PUSH2 0x38A PUSH1 0x0 DUP4 ADD DUP5 PUSH2 0x32B JUMP JUMPDEST SWAP3 SWAP2 POP POP JUMP JUMPDEST PUSH1 0x0 PUSH1 0xC0 DUP3 ADD SWAP1 POP PUSH2 0x3A5 PUSH1 0x0 DUP4 ADD DUP10 PUSH2 0x32B JUMP JUMPDEST PUSH2 0x3B2 PUSH1 0x20 DUP4 ADD DUP9 PUSH2 0x2F9 JUMP JUMPDEST PUSH2 0x3BF PUSH1 0x40 DUP4 ADD DUP8 PUSH2 0x32B JUMP JUMPDEST PUSH2 0x3CC PUSH1 0x60 DUP4 ADD DUP7 PUSH2 0x32B JUMP JUMPDEST PUSH2 0x3D9 PUSH1 0x80 DUP4 ADD DUP6 PUSH2 0x2DB JUMP JUMPDEST PUSH2 0x3E6 PUSH1 0xA0 DUP4 ADD DUP5 PUSH2 0x2EA JUMP JUMPDEST SWAP8 SWAP7 POP POP POP POP POP POP POP JUMP JUMPDEST PUSH1 0x0 DUP3 DUP3 MSTORE PUSH1 0x20 DUP3 ADD SWAP1 POP SWAP3 SWAP2 POP POP JUMP JUMPDEST PUSH1 0x0 PUSH2 0x40D DUP3 PUSH2 0x444 JUMP JUMPDEST SWAP1 POP SWAP2 SWAP1 POP JUMP JUMPDEST PUSH1 0x0 PUSH2 0x41F DUP3 PUSH2 0x444 JUMP JUMPDEST SWAP1 POP SWAP2 SWAP1 POP JUMP JUMPDEST PUSH1 0x0 DUP2 ISZERO ISZERO SWAP1 POP SWAP2 SWAP1 POP JUMP JUMPDEST PUSH1 0x0 PUSH2 0x43D DUP3 PUSH2 0x402 JUMP JUMPDEST SWAP1 POP SWAP2 SWAP1 POP JUMP JUMPDEST PUSH1 0x0 PUSH20 0xFFFFFFFFFFFFFFFFFFFFFFFFFFFFFFFFFFFFFFFF DUP3 AND SWAP1 POP SWAP2 SWAP1 POP JUMP JUMPDEST PUSH1 0x0 DUP2 SWAP1 POP SWAP2 SWAP1 POP JUMP JUMPDEST PUSH1 0x0 PUSH2 0x479 DUP3 PUSH2 0x480 JUMP JUMPDEST SWAP1 POP SWAP2 SWAP1 POP JUMP JUMPDEST PUSH1 0x0 PUSH2 0x48B DUP3 PUSH2 0x444 JUMP JUMPDEST SWAP1 POP SWAP2 SWAP1 POP JUMP JUMPDEST PUSH32 0x5265656E7472616E637947756172643A207265656E7472616E742063616C6C00 PUSH1 0x0 DUP3 ADD MSTORE POP JUMP JUMPDEST PUSH2 0x4C4 DUP2 PUSH2 0x432 JUMP JUMPDEST DUP2 EQ PUSH2 0x4CF JUMPI PUSH1 0x0 DUP1 REVERT JUMPDEST POP JUMP JUMPDEST PUSH2 0x4DB DUP2 PUSH2 0x464 JUMP JUMPDEST DUP2 EQ PUSH2 0x4E6 JUMPI PUSH1 0x0 DUP1 REVERT JUMPDEST POP JUMP INVALID LOG2 PUSH5 0x6970667358 0x22 SLT KECCAK256 0xD5 DUP13 0xAE LT 0x27 PUSH5 0x4EA1EAD88 PUSH12 0xA260A615217702551A493549 0xAB DIFFICULTY PUSH5 0x63B2B6B383 PUSH5 0x736F6C6343 STOP ADDMOD DIV STOP CALLER "
				},
				"gasEstimates": {
					"creation": {
						"codeDepositCost": "262200",
						"executionCost": "infinite",
						"totalCost": "infinite"
					},
					"external": {
						"feeAccount()": "infinite",
						"feePercent()": "infinite",
						"itemCount()": "1129",
						"items(uint256)": "infinite",
						"makeItem(address,uint256,uint256)": "infinite"
					}
				},
				"methodIdentifiers": {
					"feeAccount()": "65e17c9d",
					"feePercent()": "7fd6f15c",
					"itemCount()": "6bfb0d01",
					"items(uint256)": "bfb231d2",
					"makeItem(address,uint256,uint256)": "fa00afc7"
				}
			},
			"storageLayout": {
				"storage": [
					{
						"astId": 10,
						"contract": "contracts/Marketplace.sol:Marketplace",
						"label": "_status",
						"offset": 0,
						"slot": "0",
						"type": "t_uint256"
					},
					{
						"astId": 179,
						"contract": "contracts/Marketplace.sol:Marketplace",
						"label": "itemCount",
						"offset": 0,
						"slot": "1",
						"type": "t_uint256"
					},
					{
						"astId": 198,
						"contract": "contracts/Marketplace.sol:Marketplace",
						"label": "items",
						"offset": 0,
						"slot": "2",
						"type": "t_mapping(t_uint256,t_struct(Item)193_storage)"
					}
				],
				"types": {
					"t_address_payable": {
						"encoding": "inplace",
						"label": "address payable",
						"numberOfBytes": "20"
					},
					"t_bool": {
						"encoding": "inplace",
						"label": "bool",
						"numberOfBytes": "1"
					},
					"t_contract(IERC721)155": {
						"encoding": "inplace",
						"label": "contract IERC721",
						"numberOfBytes": "20"
					},
					"t_mapping(t_uint256,t_struct(Item)193_storage)": {
						"encoding": "mapping",
						"key": "t_uint256",
						"label": "mapping(uint256 => struct Marketplace.Item)",
						"numberOfBytes": "32",
						"value": "t_struct(Item)193_storage"
					},
					"t_struct(Item)193_storage": {
						"encoding": "inplace",
						"label": "struct Marketplace.Item",
						"members": [
							{
								"astId": 181,
								"contract": "contracts/Marketplace.sol:Marketplace",
								"label": "itemId",
								"offset": 0,
								"slot": "0",
								"type": "t_uint256"
							},
							{
								"astId": 184,
								"contract": "contracts/Marketplace.sol:Marketplace",
								"label": "nft",
								"offset": 0,
								"slot": "1",
								"type": "t_contract(IERC721)155"
							},
							{
								"astId": 186,
								"contract": "contracts/Marketplace.sol:Marketplace",
								"label": "tokenId",
								"offset": 0,
								"slot": "2",
								"type": "t_uint256"
							},
							{
								"astId": 188,
								"contract": "contracts/Marketplace.sol:Marketplace",
								"label": "price",
								"offset": 0,
								"slot": "3",
								"type": "t_uint256"
							},
							{
								"astId": 190,
								"contract": "contracts/Marketplace.sol:Marketplace",
								"label": "seller",
								"offset": 0,
								"slot": "4",
								"type": "t_address_payable"
							},
							{
								"astId": 192,
								"contract": "contracts/Marketplace.sol:Marketplace",
								"label": "sold",
								"offset": 20,
								"slot": "4",
								"type": "t_bool"
							}
						],
						"numberOfBytes": "160"
					},
					"t_uint256": {
						"encoding": "inplace",
						"label": "uint256",
						"numberOfBytes": "32"
					}
				}
			},
			"userdoc": {
				"kind": "user",
				"methods": {},
				"version": 1
			}
		}
	}
}