{
	"contracts/Marketplace.sol": {
		"Marketplace": {
			"abi": [
				{
					"inputs": [
						{
							"internalType": "uint256",
							"name": "_feePercent",
							"type": "uint256"
						}
					],
					"stateMutability": "nonpayable",
					"type": "constructor"
				},
				{
					"anonymous": false,
					"inputs": [
						{
							"indexed": false,
							"internalType": "uint256",
							"name": "itemId",
							"type": "uint256"
						},
						{
							"indexed": true,
							"internalType": "address",
							"name": "nft",
							"type": "address"
						},
						{
							"indexed": false,
							"internalType": "uint256",
							"name": "tokenId",
							"type": "uint256"
						},
						{
							"indexed": false,
							"internalType": "uint256",
							"name": "price",
							"type": "uint256"
						},
						{
							"indexed": true,
							"internalType": "address",
							"name": "seller",
							"type": "address"
						},
						{
							"indexed": true,
							"internalType": "address",
							"name": "buyer",
							"type": "address"
						}
					],
					"name": "Bought",
					"type": "event"
				},
				{
					"anonymous": false,
					"inputs": [
						{
							"indexed": false,
							"internalType": "uint256",
							"name": "itemId",
							"type": "uint256"
						},
						{
							"indexed": true,
							"internalType": "address",
							"name": "nft",
							"type": "address"
						},
						{
							"indexed": false,
							"internalType": "uint256",
							"name": "tokenId",
							"type": "uint256"
						},
						{
							"indexed": false,
							"internalType": "uint256",
							"name": "price",
							"type": "uint256"
						},
						{
							"indexed": true,
							"internalType": "address",
							"name": "seller",
							"type": "address"
						}
					],
					"name": "Offered",
					"type": "event"
				},
				{
					"inputs": [],
					"name": "feeAccount",
					"outputs": [
						{
							"internalType": "address payable",
							"name": "",
							"type": "address"
						}
					],
					"stateMutability": "view",
					"type": "function"
				},
				{
					"inputs": [],
					"name": "feePercent",
					"outputs": [
						{
							"internalType": "uint256",
							"name": "",
							"type": "uint256"
						}
					],
					"stateMutability": "view",
					"type": "function"
				},
				{
					"inputs": [],
					"name": "itemCount",
					"outputs": [
						{
							"internalType": "uint256",
							"name": "",
							"type": "uint256"
						}
					],
					"stateMutability": "view",
					"type": "function"
				},
				{
					"inputs": [
						{
							"internalType": "uint256",
							"name": "",
							"type": "uint256"
						}
					],
					"name": "items",
					"outputs": [
						{
							"internalType": "uint256",
							"name": "itemId",
							"type": "uint256"
						},
						{
							"internalType": "contract IERC721",
							"name": "nft",
							"type": "address"
						},
						{
							"internalType": "uint256",
							"name": "tokenId",
							"type": "uint256"
						},
						{
							"internalType": "uint256",
							"name": "price",
							"type": "uint256"
						},
						{
							"internalType": "address payable",
							"name": "seller",
							"type": "address"
						},
						{
							"internalType": "bool",
							"name": "sold",
							"type": "bool"
						}
					],
					"stateMutability": "view",
					"type": "function"
				},
				{
					"inputs": [
						{
							"internalType": "contract IERC721",
							"name": "_nft",
							"type": "address"
						},
						{
							"internalType": "uint256",
							"name": "_tokenId",
							"type": "uint256"
						},
						{
							"internalType": "uint256",
							"name": "_price",
							"type": "uint256"
						}
					],
					"name": "makeItem",
					"outputs": [],
					"stateMutability": "nonpayable",
					"type": "function"
				}
			],
			"devdoc": {
				"kind": "dev",
				"methods": {},
				"version": 1
			},
			"evm": {
				"assembly": "    /* \"contracts/Marketplace.sol\":198:1873  contract Marketplace is ReentrancyGuard {\r... */\n  mstore(0x40, 0xc0)\n    /* \"contracts/Marketplace.sol\":1027:1143  constructor (uint _feePercent){\r... */\n  callvalue\n  dup1\n  iszero\n  tag_1\n  jumpi\n  0x00\n  dup1\n  revert\ntag_1:\n  pop\n  mload(0x40)\n  sub(codesize, bytecodeSize)\n  dup1\n  bytecodeSize\n  dup4\n  codecopy\n  dup2\n  dup2\n  add\n  0x40\n  mstore\n  dup2\n  add\n  swap1\n  tag_2\n  swap2\n  swap1\n  tag_3\n  jump\t// in\ntag_2:\n    /* \"@openzeppelin/contracts@4.5.0/security/ReentrancyGuard.sol\":1701:1702  1 */\n  0x01\n    /* \"@openzeppelin/contracts@4.5.0/security/ReentrancyGuard.sol\":1806:1813  _status */\n  0x00\n    /* \"@openzeppelin/contracts@4.5.0/security/ReentrancyGuard.sol\":1806:1828  _status = _NOT_ENTERED */\n  dup2\n  swap1\n  sstore\n  pop\n    /* \"contracts/Marketplace.sol\":1089:1099  msg.sender */\n  caller\n    /* \"contracts/Marketplace.sol\":1068:1100  feeAccount = payable(msg.sender) */\n  0xffffffffffffffffffffffffffffffffffffffff\n  and\n  0x80\n  dup2\n  0xffffffffffffffffffffffffffffffffffffffff\n  and\n  0x60\n  shl\n  dup2\n  mstore\n  pop\n  pop\n    /* \"contracts/Marketplace.sol\":1124:1135  _feePercent */\n  dup1\n    /* \"contracts/Marketplace.sol\":1111:1135  feePercent = _feePercent */\n  0xa0\n  dup2\n  dup2\n  mstore\n  pop\n  pop\n    /* \"contracts/Marketplace.sol\":1027:1143  constructor (uint _feePercent){\r... */\n  pop\n    /* \"contracts/Marketplace.sol\":198:1873  contract Marketplace is ReentrancyGuard {\r... */\n  jump(tag_8)\n    /* \"#utility.yul\":7:150   */\ntag_10:\n    /* \"#utility.yul\":64:69   */\n  0x00\n    /* \"#utility.yul\":95:101   */\n  dup2\n    /* \"#utility.yul\":89:102   */\n  mload\n    /* \"#utility.yul\":80:102   */\n  swap1\n  pop\n    /* \"#utility.yul\":111:144   */\n  tag_12\n    /* \"#utility.yul\":138:143   */\n  dup2\n    /* \"#utility.yul\":111:144   */\n  tag_13\n  jump\t// in\ntag_12:\n    /* \"#utility.yul\":70:150   */\n  swap3\n  swap2\n  pop\n  pop\n  jump\t// out\n    /* \"#utility.yul\":156:440   */\ntag_3:\n    /* \"#utility.yul\":226:232   */\n  0x00\n    /* \"#utility.yul\":275:277   */\n  0x20\n    /* \"#utility.yul\":263:272   */\n  dup3\n    /* \"#utility.yul\":254:261   */\n  dup5\n    /* \"#utility.yul\":250:273   */\n  sub\n    /* \"#utility.yul\":246:278   */\n  slt\n    /* \"#utility.yul\":243:245   */\n  iszero\n  tag_15\n  jumpi\n    /* \"#utility.yul\":291:292   */\n  0x00\n    /* \"#utility.yul\":288:289   */\n  dup1\n    /* \"#utility.yul\":281:293   */\n  revert\n    /* \"#utility.yul\":243:245   */\ntag_15:\n    /* \"#utility.yul\":334:335   */\n  0x00\n    /* \"#utility.yul\":359:423   */\n  tag_16\n    /* \"#utility.yul\":415:422   */\n  dup5\n    /* \"#utility.yul\":406:412   */\n  dup3\n    /* \"#utility.yul\":395:404   */\n  dup6\n    /* \"#utility.yul\":391:413   */\n  add\n    /* \"#utility.yul\":359:423   */\n  tag_10\n  jump\t// in\ntag_16:\n    /* \"#utility.yul\":349:423   */\n  swap2\n  pop\n    /* \"#utility.yul\":305:433   */\n  pop\n    /* \"#utility.yul\":233:440   */\n  swap3\n  swap2\n  pop\n  pop\n  jump\t// out\n    /* \"#utility.yul\":446:523   */\ntag_17:\n    /* \"#utility.yul\":483:490   */\n  0x00\n    /* \"#utility.yul\":512:517   */\n  dup2\n    /* \"#utility.yul\":501:517   */\n  swap1\n  pop\n    /* \"#utility.yul\":491:523   */\n  swap2\n  swap1\n  pop\n  jump\t// out\n    /* \"#utility.yul\":529:651   */\ntag_13:\n    /* \"#utility.yul\":602:626   */\n  tag_20\n    /* \"#utility.yul\":620:625   */\n  dup2\n    /* \"#utility.yul\":602:626   */\n  tag_17\n  jump\t// in\ntag_20:\n    /* \"#utility.yul\":595:600   */\n  dup2\n    /* \"#utility.yul\":592:627   */\n  eq\n    /* \"#utility.yul\":582:584   */\n  tag_21\n  jumpi\n    /* \"#utility.yul\":641:642   */\n  0x00\n    /* \"#utility.yul\":638:639   */\n  dup1\n    /* \"#utility.yul\":631:643   */\n  revert\n    /* \"#utility.yul\":582:584   */\ntag_21:\n    /* \"#utility.yul\":572:651   */\n  pop\n  jump\t// out\n    /* \"contracts/Marketplace.sol\":198:1873  contract Marketplace is ReentrancyGuard {\r... */\ntag_8:\n  shr(0x60, mload(0x80))\n  mload(0xa0)\n  codecopy(0x00, dataOffset(sub_0), dataSize(sub_0))\n  0x00\n  assignImmutable(\"0xca1c98d2cee18ab5da51a9df7bbf45ca91ab83c708e48aed82f5115320306ab4\")\n  0x00\n  assignImmutable(\"0x9abd569a0444be7ce52d46a7fb79009940c0c0442116f15017290ff13cb4450c\")\n  return(0x00, dataSize(sub_0))\nstop\n\nsub_0: assembly {\n        /* \"contracts/Marketplace.sol\":198:1873  contract Marketplace is ReentrancyGuard {\r... */\n      mstore(0x40, 0x80)\n      callvalue\n      dup1\n      iszero\n      tag_1\n      jumpi\n      0x00\n      dup1\n      revert\n    tag_1:\n      pop\n      jumpi(tag_2, lt(calldatasize, 0x04))\n      shr(0xe0, calldataload(0x00))\n      dup1\n      0x65e17c9d\n      eq\n      tag_3\n      jumpi\n      dup1\n      0x6bfb0d01\n      eq\n      tag_4\n      jumpi\n      dup1\n      0x7fd6f15c\n      eq\n      tag_5\n      jumpi\n      dup1\n      0xbfb231d2\n      eq\n      tag_6\n      jumpi\n      dup1\n      0xfa00afc7\n      eq\n      tag_7\n      jumpi\n    tag_2:\n      0x00\n      dup1\n      revert\n        /* \"contracts/Marketplace.sol\":349:392  address payable public immutable feeAccount */\n    tag_3:\n      tag_8\n      tag_9\n      jump\t// in\n    tag_8:\n      mload(0x40)\n      tag_10\n      swap2\n      swap1\n      tag_11\n      jump\t// in\n    tag_10:\n      mload(0x40)\n      dup1\n      swap2\n      sub\n      swap1\n      return\n        /* \"contracts/Marketplace.sol\":438:459  uint public itemCount */\n    tag_4:\n      tag_12\n      tag_13\n      jump\t// in\n    tag_12:\n      mload(0x40)\n      tag_14\n      swap2\n      swap1\n      tag_15\n      jump\t// in\n    tag_14:\n      mload(0x40)\n      dup1\n      swap2\n      sub\n      swap1\n      return\n        /* \"contracts/Marketplace.sol\":399:431  uint public immutable feePercent */\n    tag_5:\n      tag_16\n      tag_17\n      jump\t// in\n    tag_16:\n      mload(0x40)\n      tag_18\n      swap2\n      swap1\n      tag_15\n      jump\t// in\n    tag_18:\n      mload(0x40)\n      dup1\n      swap2\n      sub\n      swap1\n      return\n        /* \"contracts/Marketplace.sol\":637:671  mapping(uint => Item) public items */\n    tag_6:\n      tag_19\n      0x04\n      dup1\n      calldatasize\n      sub\n      dup2\n      add\n      swap1\n      tag_20\n      swap2\n      swap1\n      tag_21\n      jump\t// in\n    tag_20:\n      tag_22\n      jump\t// in\n    tag_19:\n      mload(0x40)\n      tag_23\n      swap7\n      swap6\n      swap5\n      swap4\n      swap3\n      swap2\n      swap1\n      tag_24\n      jump\t// in\n    tag_23:\n      mload(0x40)\n      dup1\n      swap2\n      sub\n      swap1\n      return\n        /* \"contracts/Marketplace.sol\":1228:1868  function makeItem(IERC721 _nft, uint _tokenId, uint _price) external nonReentrant {\r... */\n    tag_7:\n      tag_25\n      0x04\n      dup1\n      calldatasize\n      sub\n      dup2\n      add\n      swap1\n      tag_26\n      swap2\n      swap1\n      tag_27\n      jump\t// in\n    tag_26:\n      tag_28\n      jump\t// in\n    tag_25:\n      stop\n        /* \"contracts/Marketplace.sol\":349:392  address payable public immutable feeAccount */\n    tag_9:\n      immutable(\"0x9abd569a0444be7ce52d46a7fb79009940c0c0442116f15017290ff13cb4450c\")\n      dup2\n      jump\t// out\n        /* \"contracts/Marketplace.sol\":438:459  uint public itemCount */\n    tag_13:\n      sload(0x01)\n      dup2\n      jump\t// out\n        /* \"contracts/Marketplace.sol\":399:431  uint public immutable feePercent */\n    tag_17:\n      immutable(\"0xca1c98d2cee18ab5da51a9df7bbf45ca91ab83c708e48aed82f5115320306ab4\")\n      dup2\n      jump\t// out\n        /* \"contracts/Marketplace.sol\":637:671  mapping(uint => Item) public items */\n    tag_22:\n      mstore(0x20, 0x02)\n      dup1\n      0x00\n      mstore\n      keccak256(0x00, 0x40)\n      0x00\n      swap2\n      pop\n      swap1\n      pop\n      dup1\n      0x00\n      add\n      sload\n      swap1\n      dup1\n      0x01\n      add\n      0x00\n      swap1\n      sload\n      swap1\n      0x0100\n      exp\n      swap1\n      div\n      0xffffffffffffffffffffffffffffffffffffffff\n      and\n      swap1\n      dup1\n      0x02\n      add\n      sload\n      swap1\n      dup1\n      0x03\n      add\n      sload\n      swap1\n      dup1\n      0x04\n      add\n      0x00\n      swap1\n      sload\n      swap1\n      0x0100\n      exp\n      swap1\n      div\n      0xffffffffffffffffffffffffffffffffffffffff\n      and\n      swap1\n      dup1\n      0x04\n      add\n      0x14\n      swap1\n      sload\n      swap1\n      0x0100\n      exp\n      swap1\n      div\n      0xff\n      and\n      swap1\n      pop\n      dup7\n      jump\t// out\n        /* \"contracts/Marketplace.sol\":1228:1868  function makeItem(IERC721 _nft, uint _tokenId, uint _price) external nonReentrant {\r... */\n    tag_28:\n        /* \"@openzeppelin/contracts@4.5.0/security/ReentrancyGuard.sol\":1744:1745  2 */\n      0x02\n        /* \"@openzeppelin/contracts@4.5.0/security/ReentrancyGuard.sol\":2325:2332  _status */\n      sload(0x00)\n        /* \"@openzeppelin/contracts@4.5.0/security/ReentrancyGuard.sol\":2325:2344  _status != _ENTERED */\n      eq\n      iszero\n        /* \"@openzeppelin/contracts@4.5.0/security/ReentrancyGuard.sol\":2317:2380  require(_status != _ENTERED, \"ReentrancyGuard: reentrant call\") */\n      tag_30\n      jumpi\n      mload(0x40)\n      0x08c379a000000000000000000000000000000000000000000000000000000000\n      dup2\n      mstore\n      0x04\n      add\n      tag_31\n      swap1\n      tag_32\n      jump\t// in\n    tag_31:\n      mload(0x40)\n      dup1\n      swap2\n      sub\n      swap1\n      revert\n    tag_30:\n        /* \"@openzeppelin/contracts@4.5.0/security/ReentrancyGuard.sol\":1744:1745  2 */\n      0x02\n        /* \"@openzeppelin/contracts@4.5.0/security/ReentrancyGuard.sol\":2455:2462  _status */\n      0x00\n        /* \"@openzeppelin/contracts@4.5.0/security/ReentrancyGuard.sol\":2455:2473  _status = _ENTERED */\n      dup2\n      swap1\n      sstore\n      pop\n        /* \"contracts/Marketplace.sol\":1338:1339  0 */\n      0x00\n        /* \"contracts/Marketplace.sol\":1329:1335  _price */\n      dup2\n        /* \"contracts/Marketplace.sol\":1329:1339  _price > 0 */\n      gt\n        /* \"contracts/Marketplace.sol\":1321:1340  require(_price > 0) */\n      tag_34\n      jumpi\n      0x00\n      dup1\n      revert\n    tag_34:\n        /* \"contracts/Marketplace.sol\":1351:1360  itemCount */\n      0x01\n      0x00\n        /* \"contracts/Marketplace.sol\":1351:1362  itemCount++ */\n      dup2\n      sload\n      dup1\n      swap3\n      swap2\n      swap1\n      tag_35\n      swap1\n      tag_36\n      jump\t// in\n    tag_35:\n      swap2\n      swap1\n      pop\n      sstore\n      pop\n        /* \"contracts/Marketplace.sol\":1461:1465  _nft */\n      dup3\n        /* \"contracts/Marketplace.sol\":1461:1478  _nft.transferFrom */\n      0xffffffffffffffffffffffffffffffffffffffff\n      and\n      0x23b872dd\n        /* \"contracts/Marketplace.sol\":1479:1489  msg.sender */\n      caller\n        /* \"contracts/Marketplace.sol\":1499:1503  this */\n      address\n        /* \"contracts/Marketplace.sol\":1506:1514  _tokenId */\n      dup6\n        /* \"contracts/Marketplace.sol\":1461:1515  _nft.transferFrom(msg.sender, address(this), _tokenId) */\n      mload(0x40)\n      dup5\n      0xffffffff\n      and\n      0xe0\n      shl\n      dup2\n      mstore\n      0x04\n      add\n      tag_37\n      swap4\n      swap3\n      swap2\n      swap1\n      tag_38\n      jump\t// in\n    tag_37:\n      0x00\n      mload(0x40)\n      dup1\n      dup4\n      sub\n      dup2\n      0x00\n      dup8\n      dup1\n      extcodesize\n      iszero\n      dup1\n      iszero\n      tag_39\n      jumpi\n      0x00\n      dup1\n      revert\n    tag_39:\n      pop\n      gas\n      call\n      iszero\n      dup1\n      iszero\n      tag_41\n      jumpi\n      returndatasize\n      0x00\n      dup1\n      returndatacopy\n      revert(0x00, returndatasize)\n    tag_41:\n      pop\n      pop\n      pop\n      pop\n        /* \"contracts/Marketplace.sol\":1545:1701  Item(\r... */\n      mload(0x40)\n      dup1\n      0xc0\n      add\n      0x40\n      mstore\n      dup1\n        /* \"contracts/Marketplace.sol\":1564:1573  itemCount */\n      sload(0x01)\n        /* \"contracts/Marketplace.sol\":1545:1701  Item(\r... */\n      dup2\n      mstore\n      0x20\n      add\n        /* \"contracts/Marketplace.sol\":1588:1592  _nft */\n      dup5\n        /* \"contracts/Marketplace.sol\":1545:1701  Item(\r... */\n      0xffffffffffffffffffffffffffffffffffffffff\n      and\n      dup2\n      mstore\n      0x20\n      add\n        /* \"contracts/Marketplace.sol\":1607:1615  _tokenId */\n      dup4\n        /* \"contracts/Marketplace.sol\":1545:1701  Item(\r... */\n      dup2\n      mstore\n      0x20\n      add\n        /* \"contracts/Marketplace.sol\":1630:1636  _price */\n      dup3\n        /* \"contracts/Marketplace.sol\":1545:1701  Item(\r... */\n      dup2\n      mstore\n      0x20\n      add\n        /* \"contracts/Marketplace.sol\":1659:1669  msg.sender */\n      caller\n        /* \"contracts/Marketplace.sol\":1545:1701  Item(\r... */\n      0xffffffffffffffffffffffffffffffffffffffff\n      and\n      dup2\n      mstore\n      0x20\n      add\n        /* \"contracts/Marketplace.sol\":1685:1690  false */\n      0x00\n        /* \"contracts/Marketplace.sol\":1545:1701  Item(\r... */\n      iszero\n      iszero\n      dup2\n      mstore\n      pop\n        /* \"contracts/Marketplace.sol\":1526:1531  items */\n      0x02\n        /* \"contracts/Marketplace.sol\":1526:1542  items[itemCount] */\n      0x00\n        /* \"contracts/Marketplace.sol\":1532:1541  itemCount */\n      sload(0x01)\n        /* \"contracts/Marketplace.sol\":1526:1542  items[itemCount] */\n      dup2\n      mstore\n      0x20\n      add\n      swap1\n      dup2\n      mstore\n      0x20\n      add\n      0x00\n      keccak256\n        /* \"contracts/Marketplace.sol\":1526:1701  items[itemCount] = Item(\r... */\n      0x00\n      dup3\n      add\n      mload\n      dup2\n      0x00\n      add\n      sstore\n      0x20\n      dup3\n      add\n      mload\n      dup2\n      0x01\n      add\n      exp(0x0100, 0x00)\n      dup2\n      sload\n      dup2\n      0xffffffffffffffffffffffffffffffffffffffff\n      mul\n      not\n      and\n      swap1\n      dup4\n      0xffffffffffffffffffffffffffffffffffffffff\n      and\n      mul\n      or\n      swap1\n      sstore\n      pop\n      0x40\n      dup3\n      add\n      mload\n      dup2\n      0x02\n      add\n      sstore\n      0x60\n      dup3\n      add\n      mload\n      dup2\n      0x03\n      add\n      sstore\n      0x80\n      dup3\n      add\n      mload\n      dup2\n      0x04\n      add\n      exp(0x0100, 0x00)\n      dup2\n      sload\n      dup2\n      0xffffffffffffffffffffffffffffffffffffffff\n      mul\n      not\n      and\n      swap1\n      dup4\n      0xffffffffffffffffffffffffffffffffffffffff\n      and\n      mul\n      or\n      swap1\n      sstore\n      pop\n      0xa0\n      dup3\n      add\n      mload\n      dup2\n      0x04\n      add\n      exp(0x0100, 0x14)\n      dup2\n      sload\n      dup2\n      0xff\n      mul\n      not\n      and\n      swap1\n      dup4\n      iszero\n      iszero\n      mul\n      or\n      swap1\n      sstore\n      pop\n      swap1\n      pop\n      pop\n        /* \"contracts/Marketplace.sol\":1837:1847  msg.sender */\n      caller\n        /* \"contracts/Marketplace.sol\":1719:1858  Offered(\r... */\n      0xffffffffffffffffffffffffffffffffffffffff\n      and\n        /* \"contracts/Marketplace.sol\":1773:1777  _nft */\n      dup4\n        /* \"contracts/Marketplace.sol\":1719:1858  Offered(\r... */\n      0xffffffffffffffffffffffffffffffffffffffff\n      and\n      0x655a0cf9c8db81512be9a76dc1c5ae5380b8816ce6ad659cd61b715e2999d59a\n        /* \"contracts/Marketplace.sol\":1741:1750  itemCount */\n      sload(0x01)\n        /* \"contracts/Marketplace.sol\":1793:1801  _tokenId */\n      dup6\n        /* \"contracts/Marketplace.sol\":1816:1822  _price */\n      dup6\n        /* \"contracts/Marketplace.sol\":1719:1858  Offered(\r... */\n      mload(0x40)\n      tag_42\n      swap4\n      swap3\n      swap2\n      swap1\n      tag_43\n      jump\t// in\n    tag_42:\n      mload(0x40)\n      dup1\n      swap2\n      sub\n      swap1\n      log3\n        /* \"@openzeppelin/contracts@4.5.0/security/ReentrancyGuard.sol\":1701:1702  1 */\n      0x01\n        /* \"@openzeppelin/contracts@4.5.0/security/ReentrancyGuard.sol\":2628:2635  _status */\n      0x00\n        /* \"@openzeppelin/contracts@4.5.0/security/ReentrancyGuard.sol\":2628:2650  _status = _NOT_ENTERED */\n      dup2\n      swap1\n      sstore\n      pop\n        /* \"contracts/Marketplace.sol\":1228:1868  function makeItem(IERC721 _nft, uint _tokenId, uint _price) external nonReentrant {\r... */\n      pop\n      pop\n      pop\n      jump\t// out\n        /* \"#utility.yul\":7:176   */\n    tag_45:\n        /* \"#utility.yul\":68:73   */\n      0x00\n        /* \"#utility.yul\":106:112   */\n      dup2\n        /* \"#utility.yul\":93:113   */\n      calldataload\n        /* \"#utility.yul\":84:113   */\n      swap1\n      pop\n        /* \"#utility.yul\":122:170   */\n      tag_47\n        /* \"#utility.yul\":164:169   */\n      dup2\n        /* \"#utility.yul\":122:170   */\n      tag_48\n      jump\t// in\n    tag_47:\n        /* \"#utility.yul\":74:176   */\n      swap3\n      swap2\n      pop\n      pop\n      jump\t// out\n        /* \"#utility.yul\":182:321   */\n    tag_49:\n        /* \"#utility.yul\":228:233   */\n      0x00\n        /* \"#utility.yul\":266:272   */\n      dup2\n        /* \"#utility.yul\":253:273   */\n      calldataload\n        /* \"#utility.yul\":244:273   */\n      swap1\n      pop\n        /* \"#utility.yul\":282:315   */\n      tag_51\n        /* \"#utility.yul\":309:314   */\n      dup2\n        /* \"#utility.yul\":282:315   */\n      tag_52\n      jump\t// in\n    tag_51:\n        /* \"#utility.yul\":234:321   */\n      swap3\n      swap2\n      pop\n      pop\n      jump\t// out\n        /* \"#utility.yul\":327:909   */\n    tag_27:\n        /* \"#utility.yul\":419:425   */\n      0x00\n        /* \"#utility.yul\":427:433   */\n      dup1\n        /* \"#utility.yul\":435:441   */\n      0x00\n        /* \"#utility.yul\":484:486   */\n      0x60\n        /* \"#utility.yul\":472:481   */\n      dup5\n        /* \"#utility.yul\":463:470   */\n      dup7\n        /* \"#utility.yul\":459:482   */\n      sub\n        /* \"#utility.yul\":455:487   */\n      slt\n        /* \"#utility.yul\":452:454   */\n      iszero\n      tag_54\n      jumpi\n        /* \"#utility.yul\":500:501   */\n      0x00\n        /* \"#utility.yul\":497:498   */\n      dup1\n        /* \"#utility.yul\":490:502   */\n      revert\n        /* \"#utility.yul\":452:454   */\n    tag_54:\n        /* \"#utility.yul\":543:544   */\n      0x00\n        /* \"#utility.yul\":568:636   */\n      tag_55\n        /* \"#utility.yul\":628:635   */\n      dup7\n        /* \"#utility.yul\":619:625   */\n      dup3\n        /* \"#utility.yul\":608:617   */\n      dup8\n        /* \"#utility.yul\":604:626   */\n      add\n        /* \"#utility.yul\":568:636   */\n      tag_45\n      jump\t// in\n    tag_55:\n        /* \"#utility.yul\":558:636   */\n      swap4\n      pop\n        /* \"#utility.yul\":514:646   */\n      pop\n        /* \"#utility.yul\":685:687   */\n      0x20\n        /* \"#utility.yul\":711:764   */\n      tag_56\n        /* \"#utility.yul\":756:763   */\n      dup7\n        /* \"#utility.yul\":747:753   */\n      dup3\n        /* \"#utility.yul\":736:745   */\n      dup8\n        /* \"#utility.yul\":732:754   */\n      add\n        /* \"#utility.yul\":711:764   */\n      tag_49\n      jump\t// in\n    tag_56:\n        /* \"#utility.yul\":701:764   */\n      swap3\n      pop\n        /* \"#utility.yul\":656:774   */\n      pop\n        /* \"#utility.yul\":813:815   */\n      0x40\n        /* \"#utility.yul\":839:892   */\n      tag_57\n        /* \"#utility.yul\":884:891   */\n      dup7\n        /* \"#utility.yul\":875:881   */\n      dup3\n        /* \"#utility.yul\":864:873   */\n      dup8\n        /* \"#utility.yul\":860:882   */\n      add\n        /* \"#utility.yul\":839:892   */\n      tag_49\n      jump\t// in\n    tag_57:\n        /* \"#utility.yul\":829:892   */\n      swap2\n      pop\n        /* \"#utility.yul\":784:902   */\n      pop\n        /* \"#utility.yul\":442:909   */\n      swap3\n      pop\n      swap3\n      pop\n      swap3\n      jump\t// out\n        /* \"#utility.yul\":915:1177   */\n    tag_21:\n        /* \"#utility.yul\":974:980   */\n      0x00\n        /* \"#utility.yul\":1023:1025   */\n      0x20\n        /* \"#utility.yul\":1011:1020   */\n      dup3\n        /* \"#utility.yul\":1002:1009   */\n      dup5\n        /* \"#utility.yul\":998:1021   */\n      sub\n        /* \"#utility.yul\":994:1026   */\n      slt\n        /* \"#utility.yul\":991:993   */\n      iszero\n      tag_59\n      jumpi\n        /* \"#utility.yul\":1039:1040   */\n      0x00\n        /* \"#utility.yul\":1036:1037   */\n      dup1\n        /* \"#utility.yul\":1029:1041   */\n      revert\n        /* \"#utility.yul\":991:993   */\n    tag_59:\n        /* \"#utility.yul\":1082:1083   */\n      0x00\n        /* \"#utility.yul\":1107:1160   */\n      tag_60\n        /* \"#utility.yul\":1152:1159   */\n      dup5\n        /* \"#utility.yul\":1143:1149   */\n      dup3\n        /* \"#utility.yul\":1132:1141   */\n      dup6\n        /* \"#utility.yul\":1128:1150   */\n      add\n        /* \"#utility.yul\":1107:1160   */\n      tag_49\n      jump\t// in\n    tag_60:\n        /* \"#utility.yul\":1097:1160   */\n      swap2\n      pop\n        /* \"#utility.yul\":1053:1170   */\n      pop\n        /* \"#utility.yul\":981:1177   */\n      swap3\n      swap2\n      pop\n      pop\n      jump\t// out\n        /* \"#utility.yul\":1183:1325   */\n    tag_61:\n        /* \"#utility.yul\":1286:1318   */\n      tag_63\n        /* \"#utility.yul\":1312:1317   */\n      dup2\n        /* \"#utility.yul\":1286:1318   */\n      tag_64\n      jump\t// in\n    tag_63:\n        /* \"#utility.yul\":1281:1284   */\n      dup3\n        /* \"#utility.yul\":1274:1319   */\n      mstore\n        /* \"#utility.yul\":1264:1325   */\n      pop\n      pop\n      jump\t// out\n        /* \"#utility.yul\":1331:1449   */\n    tag_65:\n        /* \"#utility.yul\":1418:1442   */\n      tag_67\n        /* \"#utility.yul\":1436:1441   */\n      dup2\n        /* \"#utility.yul\":1418:1442   */\n      tag_68\n      jump\t// in\n    tag_67:\n        /* \"#utility.yul\":1413:1416   */\n      dup3\n        /* \"#utility.yul\":1406:1443   */\n      mstore\n        /* \"#utility.yul\":1396:1449   */\n      pop\n      pop\n      jump\t// out\n        /* \"#utility.yul\":1455:1564   */\n    tag_69:\n        /* \"#utility.yul\":1536:1557   */\n      tag_71\n        /* \"#utility.yul\":1551:1556   */\n      dup2\n        /* \"#utility.yul\":1536:1557   */\n      tag_72\n      jump\t// in\n    tag_71:\n        /* \"#utility.yul\":1531:1534   */\n      dup3\n        /* \"#utility.yul\":1524:1558   */\n      mstore\n        /* \"#utility.yul\":1514:1564   */\n      pop\n      pop\n      jump\t// out\n        /* \"#utility.yul\":1570:1731   */\n    tag_73:\n        /* \"#utility.yul\":1672:1724   */\n      tag_75\n        /* \"#utility.yul\":1718:1723   */\n      dup2\n        /* \"#utility.yul\":1672:1724   */\n      tag_76\n      jump\t// in\n    tag_75:\n        /* \"#utility.yul\":1667:1670   */\n      dup3\n        /* \"#utility.yul\":1660:1725   */\n      mstore\n        /* \"#utility.yul\":1650:1731   */\n      pop\n      pop\n      jump\t// out\n        /* \"#utility.yul\":1737:2103   */\n    tag_77:\n        /* \"#utility.yul\":1879:1882   */\n      0x00\n        /* \"#utility.yul\":1900:1967   */\n      tag_79\n        /* \"#utility.yul\":1964:1966   */\n      0x1f\n        /* \"#utility.yul\":1959:1962   */\n      dup4\n        /* \"#utility.yul\":1900:1967   */\n      tag_80\n      jump\t// in\n    tag_79:\n        /* \"#utility.yul\":1893:1967   */\n      swap2\n      pop\n        /* \"#utility.yul\":1976:2069   */\n      tag_81\n        /* \"#utility.yul\":2065:2068   */\n      dup3\n        /* \"#utility.yul\":1976:2069   */\n      tag_82\n      jump\t// in\n    tag_81:\n        /* \"#utility.yul\":2094:2096   */\n      0x20\n        /* \"#utility.yul\":2089:2092   */\n      dup3\n        /* \"#utility.yul\":2085:2097   */\n      add\n        /* \"#utility.yul\":2078:2097   */\n      swap1\n      pop\n        /* \"#utility.yul\":1883:2103   */\n      swap2\n      swap1\n      pop\n      jump\t// out\n        /* \"#utility.yul\":2109:2227   */\n    tag_83:\n        /* \"#utility.yul\":2196:2220   */\n      tag_85\n        /* \"#utility.yul\":2214:2219   */\n      dup2\n        /* \"#utility.yul\":2196:2220   */\n      tag_86\n      jump\t// in\n    tag_85:\n        /* \"#utility.yul\":2191:2194   */\n      dup3\n        /* \"#utility.yul\":2184:2221   */\n      mstore\n        /* \"#utility.yul\":2174:2227   */\n      pop\n      pop\n      jump\t// out\n        /* \"#utility.yul\":2233:2487   */\n    tag_11:\n        /* \"#utility.yul\":2342:2346   */\n      0x00\n        /* \"#utility.yul\":2380:2382   */\n      0x20\n        /* \"#utility.yul\":2369:2378   */\n      dup3\n        /* \"#utility.yul\":2365:2383   */\n      add\n        /* \"#utility.yul\":2357:2383   */\n      swap1\n      pop\n        /* \"#utility.yul\":2393:2480   */\n      tag_88\n        /* \"#utility.yul\":2477:2478   */\n      0x00\n        /* \"#utility.yul\":2466:2475   */\n      dup4\n        /* \"#utility.yul\":2462:2479   */\n      add\n        /* \"#utility.yul\":2453:2459   */\n      dup5\n        /* \"#utility.yul\":2393:2480   */\n      tag_61\n      jump\t// in\n    tag_88:\n        /* \"#utility.yul\":2347:2487   */\n      swap3\n      swap2\n      pop\n      pop\n      jump\t// out\n        /* \"#utility.yul\":2493:2935   */\n    tag_38:\n        /* \"#utility.yul\":2642:2646   */\n      0x00\n        /* \"#utility.yul\":2680:2682   */\n      0x60\n        /* \"#utility.yul\":2669:2678   */\n      dup3\n        /* \"#utility.yul\":2665:2683   */\n      add\n        /* \"#utility.yul\":2657:2683   */\n      swap1\n      pop\n        /* \"#utility.yul\":2693:2764   */\n      tag_90\n        /* \"#utility.yul\":2761:2762   */\n      0x00\n        /* \"#utility.yul\":2750:2759   */\n      dup4\n        /* \"#utility.yul\":2746:2763   */\n      add\n        /* \"#utility.yul\":2737:2743   */\n      dup7\n        /* \"#utility.yul\":2693:2764   */\n      tag_65\n      jump\t// in\n    tag_90:\n        /* \"#utility.yul\":2774:2846   */\n      tag_91\n        /* \"#utility.yul\":2842:2844   */\n      0x20\n        /* \"#utility.yul\":2831:2840   */\n      dup4\n        /* \"#utility.yul\":2827:2845   */\n      add\n        /* \"#utility.yul\":2818:2824   */\n      dup6\n        /* \"#utility.yul\":2774:2846   */\n      tag_65\n      jump\t// in\n    tag_91:\n        /* \"#utility.yul\":2856:2928   */\n      tag_92\n        /* \"#utility.yul\":2924:2926   */\n      0x40\n        /* \"#utility.yul\":2913:2922   */\n      dup4\n        /* \"#utility.yul\":2909:2927   */\n      add\n        /* \"#utility.yul\":2900:2906   */\n      dup5\n        /* \"#utility.yul\":2856:2928   */\n      tag_83\n      jump\t// in\n    tag_92:\n        /* \"#utility.yul\":2647:2935   */\n      swap5\n      swap4\n      pop\n      pop\n      pop\n      pop\n      jump\t// out\n        /* \"#utility.yul\":2941:3360   */\n    tag_32:\n        /* \"#utility.yul\":3107:3111   */\n      0x00\n        /* \"#utility.yul\":3145:3147   */\n      0x20\n        /* \"#utility.yul\":3134:3143   */\n      dup3\n        /* \"#utility.yul\":3130:3148   */\n      add\n        /* \"#utility.yul\":3122:3148   */\n      swap1\n      pop\n        /* \"#utility.yul\":3194:3203   */\n      dup2\n        /* \"#utility.yul\":3188:3192   */\n      dup2\n        /* \"#utility.yul\":3184:3204   */\n      sub\n        /* \"#utility.yul\":3180:3181   */\n      0x00\n        /* \"#utility.yul\":3169:3178   */\n      dup4\n        /* \"#utility.yul\":3165:3182   */\n      add\n        /* \"#utility.yul\":3158:3205   */\n      mstore\n        /* \"#utility.yul\":3222:3353   */\n      tag_94\n        /* \"#utility.yul\":3348:3352   */\n      dup2\n        /* \"#utility.yul\":3222:3353   */\n      tag_77\n      jump\t// in\n    tag_94:\n        /* \"#utility.yul\":3214:3353   */\n      swap1\n      pop\n        /* \"#utility.yul\":3112:3360   */\n      swap2\n      swap1\n      pop\n      jump\t// out\n        /* \"#utility.yul\":3366:3588   */\n    tag_15:\n        /* \"#utility.yul\":3459:3463   */\n      0x00\n        /* \"#utility.yul\":3497:3499   */\n      0x20\n        /* \"#utility.yul\":3486:3495   */\n      dup3\n        /* \"#utility.yul\":3482:3500   */\n      add\n        /* \"#utility.yul\":3474:3500   */\n      swap1\n      pop\n        /* \"#utility.yul\":3510:3581   */\n      tag_96\n        /* \"#utility.yul\":3578:3579   */\n      0x00\n        /* \"#utility.yul\":3567:3576   */\n      dup4\n        /* \"#utility.yul\":3563:3580   */\n      add\n        /* \"#utility.yul\":3554:3560   */\n      dup5\n        /* \"#utility.yul\":3510:3581   */\n      tag_83\n      jump\t// in\n    tag_96:\n        /* \"#utility.yul\":3464:3588   */\n      swap3\n      swap2\n      pop\n      pop\n      jump\t// out\n        /* \"#utility.yul\":3594:4419   */\n    tag_24:\n        /* \"#utility.yul\":3852:3856   */\n      0x00\n        /* \"#utility.yul\":3890:3893   */\n      0xc0\n        /* \"#utility.yul\":3879:3888   */\n      dup3\n        /* \"#utility.yul\":3875:3894   */\n      add\n        /* \"#utility.yul\":3867:3894   */\n      swap1\n      pop\n        /* \"#utility.yul\":3904:3975   */\n      tag_98\n        /* \"#utility.yul\":3972:3973   */\n      0x00\n        /* \"#utility.yul\":3961:3970   */\n      dup4\n        /* \"#utility.yul\":3957:3974   */\n      add\n        /* \"#utility.yul\":3948:3954   */\n      dup10\n        /* \"#utility.yul\":3904:3975   */\n      tag_83\n      jump\t// in\n    tag_98:\n        /* \"#utility.yul\":3985:4072   */\n      tag_99\n        /* \"#utility.yul\":4068:4070   */\n      0x20\n        /* \"#utility.yul\":4057:4066   */\n      dup4\n        /* \"#utility.yul\":4053:4071   */\n      add\n        /* \"#utility.yul\":4044:4050   */\n      dup9\n        /* \"#utility.yul\":3985:4072   */\n      tag_73\n      jump\t// in\n    tag_99:\n        /* \"#utility.yul\":4082:4154   */\n      tag_100\n        /* \"#utility.yul\":4150:4152   */\n      0x40\n        /* \"#utility.yul\":4139:4148   */\n      dup4\n        /* \"#utility.yul\":4135:4153   */\n      add\n        /* \"#utility.yul\":4126:4132   */\n      dup8\n        /* \"#utility.yul\":4082:4154   */\n      tag_83\n      jump\t// in\n    tag_100:\n        /* \"#utility.yul\":4164:4236   */\n      tag_101\n        /* \"#utility.yul\":4232:4234   */\n      0x60\n        /* \"#utility.yul\":4221:4230   */\n      dup4\n        /* \"#utility.yul\":4217:4235   */\n      add\n        /* \"#utility.yul\":4208:4214   */\n      dup7\n        /* \"#utility.yul\":4164:4236   */\n      tag_83\n      jump\t// in\n    tag_101:\n        /* \"#utility.yul\":4246:4335   */\n      tag_102\n        /* \"#utility.yul\":4330:4333   */\n      0x80\n        /* \"#utility.yul\":4319:4328   */\n      dup4\n        /* \"#utility.yul\":4315:4334   */\n      add\n        /* \"#utility.yul\":4306:4312   */\n      dup6\n        /* \"#utility.yul\":4246:4335   */\n      tag_61\n      jump\t// in\n    tag_102:\n        /* \"#utility.yul\":4345:4412   */\n      tag_103\n        /* \"#utility.yul\":4407:4410   */\n      0xa0\n        /* \"#utility.yul\":4396:4405   */\n      dup4\n        /* \"#utility.yul\":4392:4411   */\n      add\n        /* \"#utility.yul\":4383:4389   */\n      dup5\n        /* \"#utility.yul\":4345:4412   */\n      tag_69\n      jump\t// in\n    tag_103:\n        /* \"#utility.yul\":3857:4419   */\n      swap8\n      swap7\n      pop\n      pop\n      pop\n      pop\n      pop\n      pop\n      pop\n      jump\t// out\n        /* \"#utility.yul\":4425:4867   */\n    tag_43:\n        /* \"#utility.yul\":4574:4578   */\n      0x00\n        /* \"#utility.yul\":4612:4614   */\n      0x60\n        /* \"#utility.yul\":4601:4610   */\n      dup3\n        /* \"#utility.yul\":4597:4615   */\n      add\n        /* \"#utility.yul\":4589:4615   */\n      swap1\n      pop\n        /* \"#utility.yul\":4625:4696   */\n      tag_105\n        /* \"#utility.yul\":4693:4694   */\n      0x00\n        /* \"#utility.yul\":4682:4691   */\n      dup4\n        /* \"#utility.yul\":4678:4695   */\n      add\n        /* \"#utility.yul\":4669:4675   */\n      dup7\n        /* \"#utility.yul\":4625:4696   */\n      tag_83\n      jump\t// in\n    tag_105:\n        /* \"#utility.yul\":4706:4778   */\n      tag_106\n        /* \"#utility.yul\":4774:4776   */\n      0x20\n        /* \"#utility.yul\":4763:4772   */\n      dup4\n        /* \"#utility.yul\":4759:4777   */\n      add\n        /* \"#utility.yul\":4750:4756   */\n      dup6\n        /* \"#utility.yul\":4706:4778   */\n      tag_83\n      jump\t// in\n    tag_106:\n        /* \"#utility.yul\":4788:4860   */\n      tag_107\n        /* \"#utility.yul\":4856:4858   */\n      0x40\n        /* \"#utility.yul\":4845:4854   */\n      dup4\n        /* \"#utility.yul\":4841:4859   */\n      add\n        /* \"#utility.yul\":4832:4838   */\n      dup5\n        /* \"#utility.yul\":4788:4860   */\n      tag_83\n      jump\t// in\n    tag_107:\n        /* \"#utility.yul\":4579:4867   */\n      swap5\n      swap4\n      pop\n      pop\n      pop\n      pop\n      jump\t// out\n        /* \"#utility.yul\":4873:5042   */\n    tag_80:\n        /* \"#utility.yul\":4957:4968   */\n      0x00\n        /* \"#utility.yul\":4991:4997   */\n      dup3\n        /* \"#utility.yul\":4986:4989   */\n      dup3\n        /* \"#utility.yul\":4979:4998   */\n      mstore\n        /* \"#utility.yul\":5031:5035   */\n      0x20\n        /* \"#utility.yul\":5026:5029   */\n      dup3\n        /* \"#utility.yul\":5022:5036   */\n      add\n        /* \"#utility.yul\":5007:5036   */\n      swap1\n      pop\n        /* \"#utility.yul\":4969:5042   */\n      swap3\n      swap2\n      pop\n      pop\n      jump\t// out\n        /* \"#utility.yul\":5048:5144   */\n    tag_68:\n        /* \"#utility.yul\":5085:5092   */\n      0x00\n        /* \"#utility.yul\":5114:5138   */\n      tag_110\n        /* \"#utility.yul\":5132:5137   */\n      dup3\n        /* \"#utility.yul\":5114:5138   */\n      tag_111\n      jump\t// in\n    tag_110:\n        /* \"#utility.yul\":5103:5138   */\n      swap1\n      pop\n        /* \"#utility.yul\":5093:5144   */\n      swap2\n      swap1\n      pop\n      jump\t// out\n        /* \"#utility.yul\":5150:5254   */\n    tag_64:\n        /* \"#utility.yul\":5195:5202   */\n      0x00\n        /* \"#utility.yul\":5224:5248   */\n      tag_113\n        /* \"#utility.yul\":5242:5247   */\n      dup3\n        /* \"#utility.yul\":5224:5248   */\n      tag_111\n      jump\t// in\n    tag_113:\n        /* \"#utility.yul\":5213:5248   */\n      swap1\n      pop\n        /* \"#utility.yul\":5203:5254   */\n      swap2\n      swap1\n      pop\n      jump\t// out\n        /* \"#utility.yul\":5260:5350   */\n    tag_72:\n        /* \"#utility.yul\":5294:5301   */\n      0x00\n        /* \"#utility.yul\":5337:5342   */\n      dup2\n        /* \"#utility.yul\":5330:5343   */\n      iszero\n        /* \"#utility.yul\":5323:5344   */\n      iszero\n        /* \"#utility.yul\":5312:5344   */\n      swap1\n      pop\n        /* \"#utility.yul\":5302:5350   */\n      swap2\n      swap1\n      pop\n      jump\t// out\n        /* \"#utility.yul\":5356:5467   */\n    tag_115:\n        /* \"#utility.yul\":5408:5415   */\n      0x00\n        /* \"#utility.yul\":5437:5461   */\n      tag_117\n        /* \"#utility.yul\":5455:5460   */\n      dup3\n        /* \"#utility.yul\":5437:5461   */\n      tag_68\n      jump\t// in\n    tag_117:\n        /* \"#utility.yul\":5426:5461   */\n      swap1\n      pop\n        /* \"#utility.yul\":5416:5467   */\n      swap2\n      swap1\n      pop\n      jump\t// out\n        /* \"#utility.yul\":5473:5599   */\n    tag_111:\n        /* \"#utility.yul\":5510:5517   */\n      0x00\n        /* \"#utility.yul\":5550:5592   */\n      0xffffffffffffffffffffffffffffffffffffffff\n        /* \"#utility.yul\":5543:5548   */\n      dup3\n        /* \"#utility.yul\":5539:5593   */\n      and\n        /* \"#utility.yul\":5528:5593   */\n      swap1\n      pop\n        /* \"#utility.yul\":5518:5599   */\n      swap2\n      swap1\n      pop\n      jump\t// out\n        /* \"#utility.yul\":5605:5682   */\n    tag_86:\n        /* \"#utility.yul\":5642:5649   */\n      0x00\n        /* \"#utility.yul\":5671:5676   */\n      dup2\n        /* \"#utility.yul\":5660:5676   */\n      swap1\n      pop\n        /* \"#utility.yul\":5650:5682   */\n      swap2\n      swap1\n      pop\n      jump\t// out\n        /* \"#utility.yul\":5688:5844   */\n    tag_76:\n        /* \"#utility.yul\":5753:5762   */\n      0x00\n        /* \"#utility.yul\":5786:5838   */\n      tag_121\n        /* \"#utility.yul\":5832:5837   */\n      dup3\n        /* \"#utility.yul\":5786:5838   */\n      tag_122\n      jump\t// in\n    tag_121:\n        /* \"#utility.yul\":5773:5838   */\n      swap1\n      pop\n        /* \"#utility.yul\":5763:5844   */\n      swap2\n      swap1\n      pop\n      jump\t// out\n        /* \"#utility.yul\":5850:5978   */\n    tag_122:\n        /* \"#utility.yul\":5915:5924   */\n      0x00\n        /* \"#utility.yul\":5948:5972   */\n      tag_124\n        /* \"#utility.yul\":5966:5971   */\n      dup3\n        /* \"#utility.yul\":5948:5972   */\n      tag_111\n      jump\t// in\n    tag_124:\n        /* \"#utility.yul\":5935:5972   */\n      swap1\n      pop\n        /* \"#utility.yul\":5925:5978   */\n      swap2\n      swap1\n      pop\n      jump\t// out\n        /* \"#utility.yul\":5984:6217   */\n    tag_36:\n        /* \"#utility.yul\":6023:6026   */\n      0x00\n        /* \"#utility.yul\":6046:6070   */\n      tag_126\n        /* \"#utility.yul\":6064:6069   */\n      dup3\n        /* \"#utility.yul\":6046:6070   */\n      tag_86\n      jump\t// in\n    tag_126:\n        /* \"#utility.yul\":6037:6070   */\n      swap2\n      pop\n        /* \"#utility.yul\":6092:6158   */\n      0xffffffffffffffffffffffffffffffffffffffffffffffffffffffffffffffff\n        /* \"#utility.yul\":6085:6090   */\n      dup3\n        /* \"#utility.yul\":6082:6159   */\n      eq\n        /* \"#utility.yul\":6079:6081   */\n      iszero\n      tag_127\n      jumpi\n        /* \"#utility.yul\":6162:6180   */\n      tag_128\n      tag_129\n      jump\t// in\n    tag_128:\n        /* \"#utility.yul\":6079:6081   */\n    tag_127:\n        /* \"#utility.yul\":6209:6210   */\n      0x01\n        /* \"#utility.yul\":6202:6207   */\n      dup3\n        /* \"#utility.yul\":6198:6211   */\n      add\n        /* \"#utility.yul\":6191:6211   */\n      swap1\n      pop\n        /* \"#utility.yul\":6027:6217   */\n      swap2\n      swap1\n      pop\n      jump\t// out\n        /* \"#utility.yul\":6223:6403   */\n    tag_129:\n        /* \"#utility.yul\":6271:6348   */\n      0x4e487b7100000000000000000000000000000000000000000000000000000000\n        /* \"#utility.yul\":6268:6269   */\n      0x00\n        /* \"#utility.yul\":6261:6349   */\n      mstore\n        /* \"#utility.yul\":6368:6372   */\n      0x11\n        /* \"#utility.yul\":6365:6366   */\n      0x04\n        /* \"#utility.yul\":6358:6373   */\n      mstore\n        /* \"#utility.yul\":6392:6396   */\n      0x24\n        /* \"#utility.yul\":6389:6390   */\n      0x00\n        /* \"#utility.yul\":6382:6397   */\n      revert\n        /* \"#utility.yul\":6409:6590   */\n    tag_82:\n        /* \"#utility.yul\":6549:6582   */\n      0x5265656e7472616e637947756172643a207265656e7472616e742063616c6c00\n        /* \"#utility.yul\":6545:6546   */\n      0x00\n        /* \"#utility.yul\":6537:6543   */\n      dup3\n        /* \"#utility.yul\":6533:6547   */\n      add\n        /* \"#utility.yul\":6526:6583   */\n      mstore\n        /* \"#utility.yul\":6515:6590   */\n      pop\n      jump\t// out\n        /* \"#utility.yul\":6596:6748   */\n    tag_48:\n        /* \"#utility.yul\":6684:6723   */\n      tag_133\n        /* \"#utility.yul\":6717:6722   */\n      dup2\n        /* \"#utility.yul\":6684:6723   */\n      tag_115\n      jump\t// in\n    tag_133:\n        /* \"#utility.yul\":6677:6682   */\n      dup2\n        /* \"#utility.yul\":6674:6724   */\n      eq\n        /* \"#utility.yul\":6664:6666   */\n      tag_134\n      jumpi\n        /* \"#utility.yul\":6738:6739   */\n      0x00\n        /* \"#utility.yul\":6735:6736   */\n      dup1\n        /* \"#utility.yul\":6728:6740   */\n      revert\n        /* \"#utility.yul\":6664:6666   */\n    tag_134:\n        /* \"#utility.yul\":6654:6748   */\n      pop\n      jump\t// out\n        /* \"#utility.yul\":6754:6876   */\n    tag_52:\n        /* \"#utility.yul\":6827:6851   */\n      tag_136\n        /* \"#utility.yul\":6845:6850   */\n      dup2\n        /* \"#utility.yul\":6827:6851   */\n      tag_86\n      jump\t// in\n    tag_136:\n        /* \"#utility.yul\":6820:6825   */\n      dup2\n        /* \"#utility.yul\":6817:6852   */\n      eq\n        /* \"#utility.yul\":6807:6809   */\n      tag_137\n      jumpi\n        /* \"#utility.yul\":6866:6867   */\n      0x00\n        /* \"#utility.yul\":6863:6864   */\n      dup1\n        /* \"#utility.yul\":6856:6868   */\n      revert\n        /* \"#utility.yul\":6807:6809   */\n    tag_137:\n        /* \"#utility.yul\":6797:6876   */\n      pop\n      jump\t// out\n\n    auxdata: 0xa2646970667358221220d9eee79b50dc90c8932daa515807e4fd7edb4f438e255c507eb93b9289d129ea64736f6c63430008040033\n}\n",
				"bytecode": {
					"linkReferences": {},
					"object": "60c060405234801561001057600080fd5b5060405161095b38038061095b83398181016040528101906100329190610094565b60016000819055503373ffffffffffffffffffffffffffffffffffffffff1660808173ffffffffffffffffffffffffffffffffffffffff1660601b815250508060a08181525050506100de565b60008151905061008e816100c7565b92915050565b6000602082840312156100a657600080fd5b60006100b48482850161007f565b91505092915050565b6000819050919050565b6100d0816100bd565b81146100db57600080fd5b50565b60805160601c60a05161085561010660003960006101330152600061010901526108556000f3fe608060405234801561001057600080fd5b50600436106100575760003560e01c806365e17c9d1461005c5780636bfb0d011461007a5780637fd6f15c14610098578063bfb231d2146100b6578063fa00afc7146100eb575b600080fd5b610064610107565b604051610071919061058a565b60405180910390f35b61008261012b565b60405161008f91906105fc565b60405180910390f35b6100a0610131565b6040516100ad91906105fc565b60405180910390f35b6100d060048036038101906100cb91906104f3565b610155565b6040516100e296959493929190610617565b60405180910390f35b610105600480360381019061010091906104a4565b6101de565b005b7f000000000000000000000000000000000000000000000000000000000000000081565b60015481565b7f000000000000000000000000000000000000000000000000000000000000000081565b60026020528060005260406000206000915090508060000154908060010160009054906101000a900473ffffffffffffffffffffffffffffffffffffffff16908060020154908060030154908060040160009054906101000a900473ffffffffffffffffffffffffffffffffffffffff16908060040160149054906101000a900460ff16905086565b60026000541415610224576040517f08c379a000000000000000000000000000000000000000000000000000000000815260040161021b906105dc565b60405180910390fd5b60026000819055506000811161023957600080fd5b6001600081548092919061024c90610750565b91905055508273ffffffffffffffffffffffffffffffffffffffff166323b872dd3330856040518463ffffffff1660e01b815260040161028e939291906105a5565b600060405180830381600087803b1580156102a857600080fd5b505af11580156102bc573d6000803e3d6000fd5b505050506040518060c0016040528060015481526020018473ffffffffffffffffffffffffffffffffffffffff1681526020018381526020018281526020013373ffffffffffffffffffffffffffffffffffffffff168152602001600015158152506002600060015481526020019081526020016000206000820151816000015560208201518160010160006101000a81548173ffffffffffffffffffffffffffffffffffffffff021916908373ffffffffffffffffffffffffffffffffffffffff160217905550604082015181600201556060820151816003015560808201518160040160006101000a81548173ffffffffffffffffffffffffffffffffffffffff021916908373ffffffffffffffffffffffffffffffffffffffff16021790555060a08201518160040160146101000a81548160ff0219169083151502179055509050503373ffffffffffffffffffffffffffffffffffffffff168373ffffffffffffffffffffffffffffffffffffffff167f655a0cf9c8db81512be9a76dc1c5ae5380b8816ce6ad659cd61b715e2999d59a600154858560405161046593929190610678565b60405180910390a36001600081905550505050565b600081359050610489816107f1565b92915050565b60008135905061049e81610808565b92915050565b6000806000606084860312156104b957600080fd5b60006104c78682870161047a565b93505060206104d88682870161048f565b92505060406104e98682870161048f565b9150509250925092565b60006020828403121561050557600080fd5b60006105138482850161048f565b91505092915050565b610525816106d2565b82525050565b610534816106c0565b82525050565b610543816106e4565b82525050565b6105528161072c565b82525050565b6000610565601f836106af565b9150610570826107c8565b602082019050919050565b61058481610722565b82525050565b600060208201905061059f600083018461051c565b92915050565b60006060820190506105ba600083018661052b565b6105c7602083018561052b565b6105d4604083018461057b565b949350505050565b600060208201905081810360008301526105f581610558565b9050919050565b6000602082019050610611600083018461057b565b92915050565b600060c08201905061062c600083018961057b565b6106396020830188610549565b610646604083018761057b565b610653606083018661057b565b610660608083018561051c565b61066d60a083018461053a565b979650505050505050565b600060608201905061068d600083018661057b565b61069a602083018561057b565b6106a7604083018461057b565b949350505050565b600082825260208201905092915050565b60006106cb82610702565b9050919050565b60006106dd82610702565b9050919050565b60008115159050919050565b60006106fb826106c0565b9050919050565b600073ffffffffffffffffffffffffffffffffffffffff82169050919050565b6000819050919050565b60006107378261073e565b9050919050565b600061074982610702565b9050919050565b600061075b82610722565b91507fffffffffffffffffffffffffffffffffffffffffffffffffffffffffffffffff82141561078e5761078d610799565b5b600182019050919050565b7f4e487b7100000000000000000000000000000000000000000000000000000000600052601160045260246000fd5b7f5265656e7472616e637947756172643a207265656e7472616e742063616c6c00600082015250565b6107fa816106f0565b811461080557600080fd5b50565b61081181610722565b811461081c57600080fd5b5056fea2646970667358221220d9eee79b50dc90c8932daa515807e4fd7edb4f438e255c507eb93b9289d129ea64736f6c63430008040033",
					"opcodes": "PUSH1 0xC0 PUSH1 0x40 MSTORE CALLVALUE DUP1 ISZERO PUSH2 0x10 JUMPI PUSH1 0x0 DUP1 REVERT JUMPDEST POP PUSH1 0x40 MLOAD PUSH2 0x95B CODESIZE SUB DUP1 PUSH2 0x95B DUP4 CODECOPY DUP2 DUP2 ADD PUSH1 0x40 MSTORE DUP2 ADD SWAP1 PUSH2 0x32 SWAP2 SWAP1 PUSH2 0x94 JUMP JUMPDEST PUSH1 0x1 PUSH1 0x0 DUP2 SWAP1 SSTORE POP CALLER PUSH20 0xFFFFFFFFFFFFFFFFFFFFFFFFFFFFFFFFFFFFFFFF AND PUSH1 0x80 DUP2 PUSH20 0xFFFFFFFFFFFFFFFFFFFFFFFFFFFFFFFFFFFFFFFF AND PUSH1 0x60 SHL DUP2 MSTORE POP POP DUP1 PUSH1 0xA0 DUP2 DUP2 MSTORE POP POP POP PUSH2 0xDE JUMP JUMPDEST PUSH1 0x0 DUP2 MLOAD SWAP1 POP PUSH2 0x8E DUP2 PUSH2 0xC7 JUMP JUMPDEST SWAP3 SWAP2 POP POP JUMP JUMPDEST PUSH1 0x0 PUSH1 0x20 DUP3 DUP5 SUB SLT ISZERO PUSH2 0xA6 JUMPI PUSH1 0x0 DUP1 REVERT JUMPDEST PUSH1 0x0 PUSH2 0xB4 DUP5 DUP3 DUP6 ADD PUSH2 0x7F JUMP JUMPDEST SWAP2 POP POP SWAP3 SWAP2 POP POP JUMP JUMPDEST PUSH1 0x0 DUP2 SWAP1 POP SWAP2 SWAP1 POP JUMP JUMPDEST PUSH2 0xD0 DUP2 PUSH2 0xBD JUMP JUMPDEST DUP2 EQ PUSH2 0xDB JUMPI PUSH1 0x0 DUP1 REVERT JUMPDEST POP JUMP JUMPDEST PUSH1 0x80 MLOAD PUSH1 0x60 SHR PUSH1 0xA0 MLOAD PUSH2 0x855 PUSH2 0x106 PUSH1 0x0 CODECOPY PUSH1 0x0 PUSH2 0x133 ADD MSTORE PUSH1 0x0 PUSH2 0x109 ADD MSTORE PUSH2 0x855 PUSH1 0x0 RETURN INVALID PUSH1 0x80 PUSH1 0x40 MSTORE CALLVALUE DUP1 ISZERO PUSH2 0x10 JUMPI PUSH1 0x0 DUP1 REVERT JUMPDEST POP PUSH1 0x4 CALLDATASIZE LT PUSH2 0x57 JUMPI PUSH1 0x0 CALLDATALOAD PUSH1 0xE0 SHR DUP1 PUSH4 0x65E17C9D EQ PUSH2 0x5C JUMPI DUP1 PUSH4 0x6BFB0D01 EQ PUSH2 0x7A JUMPI DUP1 PUSH4 0x7FD6F15C EQ PUSH2 0x98 JUMPI DUP1 PUSH4 0xBFB231D2 EQ PUSH2 0xB6 JUMPI DUP1 PUSH4 0xFA00AFC7 EQ PUSH2 0xEB JUMPI JUMPDEST PUSH1 0x0 DUP1 REVERT JUMPDEST PUSH2 0x64 PUSH2 0x107 JUMP JUMPDEST PUSH1 0x40 MLOAD PUSH2 0x71 SWAP2 SWAP1 PUSH2 0x58A JUMP JUMPDEST PUSH1 0x40 MLOAD DUP1 SWAP2 SUB SWAP1 RETURN JUMPDEST PUSH2 0x82 PUSH2 0x12B JUMP JUMPDEST PUSH1 0x40 MLOAD PUSH2 0x8F SWAP2 SWAP1 PUSH2 0x5FC JUMP JUMPDEST PUSH1 0x40 MLOAD DUP1 SWAP2 SUB SWAP1 RETURN JUMPDEST PUSH2 0xA0 PUSH2 0x131 JUMP JUMPDEST PUSH1 0x40 MLOAD PUSH2 0xAD SWAP2 SWAP1 PUSH2 0x5FC JUMP JUMPDEST PUSH1 0x40 MLOAD DUP1 SWAP2 SUB SWAP1 RETURN JUMPDEST PUSH2 0xD0 PUSH1 0x4 DUP1 CALLDATASIZE SUB DUP2 ADD SWAP1 PUSH2 0xCB SWAP2 SWAP1 PUSH2 0x4F3 JUMP JUMPDEST PUSH2 0x155 JUMP JUMPDEST PUSH1 0x40 MLOAD PUSH2 0xE2 SWAP7 SWAP6 SWAP5 SWAP4 SWAP3 SWAP2 SWAP1 PUSH2 0x617 JUMP JUMPDEST PUSH1 0x40 MLOAD DUP1 SWAP2 SUB SWAP1 RETURN JUMPDEST PUSH2 0x105 PUSH1 0x4 DUP1 CALLDATASIZE SUB DUP2 ADD SWAP1 PUSH2 0x100 SWAP2 SWAP1 PUSH2 0x4A4 JUMP JUMPDEST PUSH2 0x1DE JUMP JUMPDEST STOP JUMPDEST PUSH32 0x0 DUP2 JUMP JUMPDEST PUSH1 0x1 SLOAD DUP2 JUMP JUMPDEST PUSH32 0x0 DUP2 JUMP JUMPDEST PUSH1 0x2 PUSH1 0x20 MSTORE DUP1 PUSH1 0x0 MSTORE PUSH1 0x40 PUSH1 0x0 KECCAK256 PUSH1 0x0 SWAP2 POP SWAP1 POP DUP1 PUSH1 0x0 ADD SLOAD SWAP1 DUP1 PUSH1 0x1 ADD PUSH1 0x0 SWAP1 SLOAD SWAP1 PUSH2 0x100 EXP SWAP1 DIV PUSH20 0xFFFFFFFFFFFFFFFFFFFFFFFFFFFFFFFFFFFFFFFF AND SWAP1 DUP1 PUSH1 0x2 ADD SLOAD SWAP1 DUP1 PUSH1 0x3 ADD SLOAD SWAP1 DUP1 PUSH1 0x4 ADD PUSH1 0x0 SWAP1 SLOAD SWAP1 PUSH2 0x100 EXP SWAP1 DIV PUSH20 0xFFFFFFFFFFFFFFFFFFFFFFFFFFFFFFFFFFFFFFFF AND SWAP1 DUP1 PUSH1 0x4 ADD PUSH1 0x14 SWAP1 SLOAD SWAP1 PUSH2 0x100 EXP SWAP1 DIV PUSH1 0xFF AND SWAP1 POP DUP7 JUMP JUMPDEST PUSH1 0x2 PUSH1 0x0 SLOAD EQ ISZERO PUSH2 0x224 JUMPI PUSH1 0x40 MLOAD PUSH32 0x8C379A000000000000000000000000000000000000000000000000000000000 DUP2 MSTORE PUSH1 0x4 ADD PUSH2 0x21B SWAP1 PUSH2 0x5DC JUMP JUMPDEST PUSH1 0x40 MLOAD DUP1 SWAP2 SUB SWAP1 REVERT JUMPDEST PUSH1 0x2 PUSH1 0x0 DUP2 SWAP1 SSTORE POP PUSH1 0x0 DUP2 GT PUSH2 0x239 JUMPI PUSH1 0x0 DUP1 REVERT JUMPDEST PUSH1 0x1 PUSH1 0x0 DUP2 SLOAD DUP1 SWAP3 SWAP2 SWAP1 PUSH2 0x24C SWAP1 PUSH2 0x750 JUMP JUMPDEST SWAP2 SWAP1 POP SSTORE POP DUP3 PUSH20 0xFFFFFFFFFFFFFFFFFFFFFFFFFFFFFFFFFFFFFFFF AND PUSH4 0x23B872DD CALLER ADDRESS DUP6 PUSH1 0x40 MLOAD DUP5 PUSH4 0xFFFFFFFF AND PUSH1 0xE0 SHL DUP2 MSTORE PUSH1 0x4 ADD PUSH2 0x28E SWAP4 SWAP3 SWAP2 SWAP1 PUSH2 0x5A5 JUMP JUMPDEST PUSH1 0x0 PUSH1 0x40 MLOAD DUP1 DUP4 SUB DUP2 PUSH1 0x0 DUP8 DUP1 EXTCODESIZE ISZERO DUP1 ISZERO PUSH2 0x2A8 JUMPI PUSH1 0x0 DUP1 REVERT JUMPDEST POP GAS CALL ISZERO DUP1 ISZERO PUSH2 0x2BC JUMPI RETURNDATASIZE PUSH1 0x0 DUP1 RETURNDATACOPY RETURNDATASIZE PUSH1 0x0 REVERT JUMPDEST POP POP POP POP PUSH1 0x40 MLOAD DUP1 PUSH1 0xC0 ADD PUSH1 0x40 MSTORE DUP1 PUSH1 0x1 SLOAD DUP2 MSTORE PUSH1 0x20 ADD DUP5 PUSH20 0xFFFFFFFFFFFFFFFFFFFFFFFFFFFFFFFFFFFFFFFF AND DUP2 MSTORE PUSH1 0x20 ADD DUP4 DUP2 MSTORE PUSH1 0x20 ADD DUP3 DUP2 MSTORE PUSH1 0x20 ADD CALLER PUSH20 0xFFFFFFFFFFFFFFFFFFFFFFFFFFFFFFFFFFFFFFFF AND DUP2 MSTORE PUSH1 0x20 ADD PUSH1 0x0 ISZERO ISZERO DUP2 MSTORE POP PUSH1 0x2 PUSH1 0x0 PUSH1 0x1 SLOAD DUP2 MSTORE PUSH1 0x20 ADD SWAP1 DUP2 MSTORE PUSH1 0x20 ADD PUSH1 0x0 KECCAK256 PUSH1 0x0 DUP3 ADD MLOAD DUP2 PUSH1 0x0 ADD SSTORE PUSH1 0x20 DUP3 ADD MLOAD DUP2 PUSH1 0x1 ADD PUSH1 0x0 PUSH2 0x100 EXP DUP2 SLOAD DUP2 PUSH20 0xFFFFFFFFFFFFFFFFFFFFFFFFFFFFFFFFFFFFFFFF MUL NOT AND SWAP1 DUP4 PUSH20 0xFFFFFFFFFFFFFFFFFFFFFFFFFFFFFFFFFFFFFFFF AND MUL OR SWAP1 SSTORE POP PUSH1 0x40 DUP3 ADD MLOAD DUP2 PUSH1 0x2 ADD SSTORE PUSH1 0x60 DUP3 ADD MLOAD DUP2 PUSH1 0x3 ADD SSTORE PUSH1 0x80 DUP3 ADD MLOAD DUP2 PUSH1 0x4 ADD PUSH1 0x0 PUSH2 0x100 EXP DUP2 SLOAD DUP2 PUSH20 0xFFFFFFFFFFFFFFFFFFFFFFFFFFFFFFFFFFFFFFFF MUL NOT AND SWAP1 DUP4 PUSH20 0xFFFFFFFFFFFFFFFFFFFFFFFFFFFFFFFFFFFFFFFF AND MUL OR SWAP1 SSTORE POP PUSH1 0xA0 DUP3 ADD MLOAD DUP2 PUSH1 0x4 ADD PUSH1 0x14 PUSH2 0x100 EXP DUP2 SLOAD DUP2 PUSH1 0xFF MUL NOT AND SWAP1 DUP4 ISZERO ISZERO MUL OR SWAP1 SSTORE POP SWAP1 POP POP CALLER PUSH20 0xFFFFFFFFFFFFFFFFFFFFFFFFFFFFFFFFFFFFFFFF AND DUP4 PUSH20 0xFFFFFFFFFFFFFFFFFFFFFFFFFFFFFFFFFFFFFFFF AND PUSH32 0x655A0CF9C8DB81512BE9A76DC1C5AE5380B8816CE6AD659CD61B715E2999D59A PUSH1 0x1 SLOAD DUP6 DUP6 PUSH1 0x40 MLOAD PUSH2 0x465 SWAP4 SWAP3 SWAP2 SWAP1 PUSH2 0x678 JUMP JUMPDEST PUSH1 0x40 MLOAD DUP1 SWAP2 SUB SWAP1 LOG3 PUSH1 0x1 PUSH1 0x0 DUP2 SWAP1 SSTORE POP POP POP POP JUMP JUMPDEST PUSH1 0x0 DUP2 CALLDATALOAD SWAP1 POP PUSH2 0x489 DUP2 PUSH2 0x7F1 JUMP JUMPDEST SWAP3 SWAP2 POP POP JUMP JUMPDEST PUSH1 0x0 DUP2 CALLDATALOAD SWAP1 POP PUSH2 0x49E DUP2 PUSH2 0x808 JUMP JUMPDEST SWAP3 SWAP2 POP POP JUMP JUMPDEST PUSH1 0x0 DUP1 PUSH1 0x0 PUSH1 0x60 DUP5 DUP7 SUB SLT ISZERO PUSH2 0x4B9 JUMPI PUSH1 0x0 DUP1 REVERT JUMPDEST PUSH1 0x0 PUSH2 0x4C7 DUP7 DUP3 DUP8 ADD PUSH2 0x47A JUMP JUMPDEST SWAP4 POP POP PUSH1 0x20 PUSH2 0x4D8 DUP7 DUP3 DUP8 ADD PUSH2 0x48F JUMP JUMPDEST SWAP3 POP POP PUSH1 0x40 PUSH2 0x4E9 DUP7 DUP3 DUP8 ADD PUSH2 0x48F JUMP JUMPDEST SWAP2 POP POP SWAP3 POP SWAP3 POP SWAP3 JUMP JUMPDEST PUSH1 0x0 PUSH1 0x20 DUP3 DUP5 SUB SLT ISZERO PUSH2 0x505 JUMPI PUSH1 0x0 DUP1 REVERT JUMPDEST PUSH1 0x0 PUSH2 0x513 DUP5 DUP3 DUP6 ADD PUSH2 0x48F JUMP JUMPDEST SWAP2 POP POP SWAP3 SWAP2 POP POP JUMP JUMPDEST PUSH2 0x525 DUP2 PUSH2 0x6D2 JUMP JUMPDEST DUP3 MSTORE POP POP JUMP JUMPDEST PUSH2 0x534 DUP2 PUSH2 0x6C0 JUMP JUMPDEST DUP3 MSTORE POP POP JUMP JUMPDEST PUSH2 0x543 DUP2 PUSH2 0x6E4 JUMP JUMPDEST DUP3 MSTORE POP POP JUMP JUMPDEST PUSH2 0x552 DUP2 PUSH2 0x72C JUMP JUMPDEST DUP3 MSTORE POP POP JUMP JUMPDEST PUSH1 0x0 PUSH2 0x565 PUSH1 0x1F DUP4 PUSH2 0x6AF JUMP JUMPDEST SWAP2 POP PUSH2 0x570 DUP3 PUSH2 0x7C8 JUMP JUMPDEST PUSH1 0x20 DUP3 ADD SWAP1 POP SWAP2 SWAP1 POP JUMP JUMPDEST PUSH2 0x584 DUP2 PUSH2 0x722 JUMP JUMPDEST DUP3 MSTORE POP POP JUMP JUMPDEST PUSH1 0x0 PUSH1 0x20 DUP3 ADD SWAP1 POP PUSH2 0x59F PUSH1 0x0 DUP4 ADD DUP5 PUSH2 0x51C JUMP JUMPDEST SWAP3 SWAP2 POP POP JUMP JUMPDEST PUSH1 0x0 PUSH1 0x60 DUP3 ADD SWAP1 POP PUSH2 0x5BA PUSH1 0x0 DUP4 ADD DUP7 PUSH2 0x52B JUMP JUMPDEST PUSH2 0x5C7 PUSH1 0x20 DUP4 ADD DUP6 PUSH2 0x52B JUMP JUMPDEST PUSH2 0x5D4 PUSH1 0x40 DUP4 ADD DUP5 PUSH2 0x57B JUMP JUMPDEST SWAP5 SWAP4 POP POP POP POP JUMP JUMPDEST PUSH1 0x0 PUSH1 0x20 DUP3 ADD SWAP1 POP DUP2 DUP2 SUB PUSH1 0x0 DUP4 ADD MSTORE PUSH2 0x5F5 DUP2 PUSH2 0x558 JUMP JUMPDEST SWAP1 POP SWAP2 SWAP1 POP JUMP JUMPDEST PUSH1 0x0 PUSH1 0x20 DUP3 ADD SWAP1 POP PUSH2 0x611 PUSH1 0x0 DUP4 ADD DUP5 PUSH2 0x57B JUMP JUMPDEST SWAP3 SWAP2 POP POP JUMP JUMPDEST PUSH1 0x0 PUSH1 0xC0 DUP3 ADD SWAP1 POP PUSH2 0x62C PUSH1 0x0 DUP4 ADD DUP10 PUSH2 0x57B JUMP JUMPDEST PUSH2 0x639 PUSH1 0x20 DUP4 ADD DUP9 PUSH2 0x549 JUMP JUMPDEST PUSH2 0x646 PUSH1 0x40 DUP4 ADD DUP8 PUSH2 0x57B JUMP JUMPDEST PUSH2 0x653 PUSH1 0x60 DUP4 ADD DUP7 PUSH2 0x57B JUMP JUMPDEST PUSH2 0x660 PUSH1 0x80 DUP4 ADD DUP6 PUSH2 0x51C JUMP JUMPDEST PUSH2 0x66D PUSH1 0xA0 DUP4 ADD DUP5 PUSH2 0x53A JUMP JUMPDEST SWAP8 SWAP7 POP POP POP POP POP POP POP JUMP JUMPDEST PUSH1 0x0 PUSH1 0x60 DUP3 ADD SWAP1 POP PUSH2 0x68D PUSH1 0x0 DUP4 ADD DUP7 PUSH2 0x57B JUMP JUMPDEST PUSH2 0x69A PUSH1 0x20 DUP4 ADD DUP6 PUSH2 0x57B JUMP JUMPDEST PUSH2 0x6A7 PUSH1 0x40 DUP4 ADD DUP5 PUSH2 0x57B JUMP JUMPDEST SWAP5 SWAP4 POP POP POP POP JUMP JUMPDEST PUSH1 0x0 DUP3 DUP3 MSTORE PUSH1 0x20 DUP3 ADD SWAP1 POP SWAP3 SWAP2 POP POP JUMP JUMPDEST PUSH1 0x0 PUSH2 0x6CB DUP3 PUSH2 0x702 JUMP JUMPDEST SWAP1 POP SWAP2 SWAP1 POP JUMP JUMPDEST PUSH1 0x0 PUSH2 0x6DD DUP3 PUSH2 0x702 JUMP JUMPDEST SWAP1 POP SWAP2 SWAP1 POP JUMP JUMPDEST PUSH1 0x0 DUP2 ISZERO ISZERO SWAP1 POP SWAP2 SWAP1 POP JUMP JUMPDEST PUSH1 0x0 PUSH2 0x6FB DUP3 PUSH2 0x6C0 JUMP JUMPDEST SWAP1 POP SWAP2 SWAP1 POP JUMP JUMPDEST PUSH1 0x0 PUSH20 0xFFFFFFFFFFFFFFFFFFFFFFFFFFFFFFFFFFFFFFFF DUP3 AND SWAP1 POP SWAP2 SWAP1 POP JUMP JUMPDEST PUSH1 0x0 DUP2 SWAP1 POP SWAP2 SWAP1 POP JUMP JUMPDEST PUSH1 0x0 PUSH2 0x737 DUP3 PUSH2 0x73E JUMP JUMPDEST SWAP1 POP SWAP2 SWAP1 POP JUMP JUMPDEST PUSH1 0x0 PUSH2 0x749 DUP3 PUSH2 0x702 JUMP JUMPDEST SWAP1 POP SWAP2 SWAP1 POP JUMP JUMPDEST PUSH1 0x0 PUSH2 0x75B DUP3 PUSH2 0x722 JUMP JUMPDEST SWAP2 POP PUSH32 0xFFFFFFFFFFFFFFFFFFFFFFFFFFFFFFFFFFFFFFFFFFFFFFFFFFFFFFFFFFFFFFFF DUP3 EQ ISZERO PUSH2 0x78E JUMPI PUSH2 0x78D PUSH2 0x799 JUMP JUMPDEST JUMPDEST PUSH1 0x1 DUP3 ADD SWAP1 POP SWAP2 SWAP1 POP JUMP JUMPDEST PUSH32 0x4E487B7100000000000000000000000000000000000000000000000000000000 PUSH1 0x0 MSTORE PUSH1 0x11 PUSH1 0x4 MSTORE PUSH1 0x24 PUSH1 0x0 REVERT JUMPDEST PUSH32 0x5265656E7472616E637947756172643A207265656E7472616E742063616C6C00 PUSH1 0x0 DUP3 ADD MSTORE POP JUMP JUMPDEST PUSH2 0x7FA DUP2 PUSH2 0x6F0 JUMP JUMPDEST DUP2 EQ PUSH2 0x805 JUMPI PUSH1 0x0 DUP1 REVERT JUMPDEST POP JUMP JUMPDEST PUSH2 0x811 DUP2 PUSH2 0x722 JUMP JUMPDEST DUP2 EQ PUSH2 0x81C JUMPI PUSH1 0x0 DUP1 REVERT JUMPDEST POP JUMP INVALID LOG2 PUSH5 0x6970667358 0x22 SLT KECCAK256 0xD9 0xEE 0xE7 SWAP12 POP 0xDC SWAP1 0xC8 SWAP4 0x2D 0xAA MLOAD PC SMOD 0xE4 REVERT PUSH31 0xDB4F438E255C507EB93B9289D129EA64736F6C634300080400330000000000 "
				},
				"gasEstimates": {
					"creation": {
						"codeDepositCost": "426600",
						"executionCost": "infinite",
						"totalCost": "infinite"
					},
					"external": {
						"feeAccount()": "infinite",
						"feePercent()": "infinite",
						"itemCount()": "1129",
						"items(uint256)": "infinite",
						"makeItem(address,uint256,uint256)": "infinite"
					}
				},
				"methodIdentifiers": {
					"feeAccount()": "65e17c9d",
					"feePercent()": "7fd6f15c",
					"itemCount()": "6bfb0d01",
					"items(uint256)": "bfb231d2",
					"makeItem(address,uint256,uint256)": "fa00afc7"
				}
			},
			"storageLayout": {
				"storage": [
					{
						"astId": 10,
						"contract": "contracts/Marketplace.sol:Marketplace",
						"label": "_status",
						"offset": 0,
						"slot": "0",
						"type": "t_uint256"
					},
					{
						"astId": 179,
						"contract": "contracts/Marketplace.sol:Marketplace",
						"label": "itemCount",
						"offset": 0,
						"slot": "1",
						"type": "t_uint256"
					},
					{
						"astId": 198,
						"contract": "contracts/Marketplace.sol:Marketplace",
						"label": "items",
						"offset": 0,
						"slot": "2",
						"type": "t_mapping(t_uint256,t_struct(Item)193_storage)"
					}
				],
				"types": {
					"t_address_payable": {
						"encoding": "inplace",
						"label": "address payable",
						"numberOfBytes": "20"
					},
					"t_bool": {
						"encoding": "inplace",
						"label": "bool",
						"numberOfBytes": "1"
					},
					"t_contract(IERC721)155": {
						"encoding": "inplace",
						"label": "contract IERC721",
						"numberOfBytes": "20"
					},
					"t_mapping(t_uint256,t_struct(Item)193_storage)": {
						"encoding": "mapping",
						"key": "t_uint256",
						"label": "mapping(uint256 => struct Marketplace.Item)",
						"numberOfBytes": "32",
						"value": "t_struct(Item)193_storage"
					},
					"t_struct(Item)193_storage": {
						"encoding": "inplace",
						"label": "struct Marketplace.Item",
						"members": [
							{
								"astId": 181,
								"contract": "contracts/Marketplace.sol:Marketplace",
								"label": "itemId",
								"offset": 0,
								"slot": "0",
								"type": "t_uint256"
							},
							{
								"astId": 184,
								"contract": "contracts/Marketplace.sol:Marketplace",
								"label": "nft",
								"offset": 0,
								"slot": "1",
								"type": "t_contract(IERC721)155"
							},
							{
								"astId": 186,
								"contract": "contracts/Marketplace.sol:Marketplace",
								"label": "tokenId",
								"offset": 0,
								"slot": "2",
								"type": "t_uint256"
							},
							{
								"astId": 188,
								"contract": "contracts/Marketplace.sol:Marketplace",
								"label": "price",
								"offset": 0,
								"slot": "3",
								"type": "t_uint256"
							},
							{
								"astId": 190,
								"contract": "contracts/Marketplace.sol:Marketplace",
								"label": "seller",
								"offset": 0,
								"slot": "4",
								"type": "t_address_payable"
							},
							{
								"astId": 192,
								"contract": "contracts/Marketplace.sol:Marketplace",
								"label": "sold",
								"offset": 20,
								"slot": "4",
								"type": "t_bool"
							}
						],
						"numberOfBytes": "160"
					},
					"t_uint256": {
						"encoding": "inplace",
						"label": "uint256",
						"numberOfBytes": "32"
					}
				}
			},
			"userdoc": {
				"kind": "user",
				"methods": {},
				"version": 1
			}
		}
	}
}